:100000000C942A000C94AB0C0C94DE0C0C94110D87
:100010000C9422090C94EF080C9447000C944700B0
:100020000C9447000C9447000C94590B0C94260B2D
:100030000C9447000C9447000C9447000C94470024
:100040000C94EF120C9447000C9447000C9447005A
:100050000C94470011241FBECFE5D8E0DEBFCDBF12
:1000600011E0A0E6B0E0E0ECF9E602C005900D92E8
:10007000AC38B107D9F711E0ACE8B1E001C01D928E
:10008000A03AB107E1F70E9477340C94DE340C9467
:100090000000EF92FF920F931F937B018C0120E0F1
:1000A00030E040E05FE40E94F50388238CF0C80153
:1000B000B70120E030E040E05FE40E94C1010E940F
:1000C000B3049B01AC01205030404040504806C072
:1000D000C801B7010E94B3049B01AC01B901CA0178
:1000E0001F910F91FF90EF900895A0E0B0E0EBE733
:1000F000F0E00C94A734DC012B01FA019C919230C2
:1001000008F439C1EB018881823008F433C194309E
:1001100069F4843009F02FC111969C91119789815F
:10012000981709F428C1A2E6B0E025C1843009F48B
:1001300021C18230A9F4923009F01DC19A01AD01AC
:1001400088E0EA010990AE01E90109929E0181501F
:10015000C1F7E201898111969C918923818308C1AD
:10016000923009F407C112962D903C901397EB0141
:100170008A819B811496AD90BD90CD90DC901797AD
:10018000EC80FD800E811F819101281B390BB90184
:1001900037FF04C066277727621B730B6032710537
:1001A0000CF061C0121613066CF537014801062EDB
:1001B00004C096948794779467940A94D2F721E0C8
:1001C00030E040E050E004C0220F331F441F551FB1
:1001D0006A95D2F721503040404050402E213F21B7
:1001E00040235123211531054105510521F021E01E
:1001F00030E040E050E079018A01E628F72808293C
:1002000019293CC0232BD1F1260E371E350146019A
:10021000062E04C096948794779467940A94D2F734
:1002200021E030E040E050E004C0220F331F441FC3
:10023000551F6A95D2F721503040404050402A2146
:100240003B214C215D21211531054105510521F04E
:1002500021E030E040E050E059016A01A628B728CB
:10026000C828D9280BC0821593052CF01C01AA249C
:10027000BB24650103C0EE24FF24870111969C91E5
:10028000D20111968C91981709F445C0992339F041
:10029000A80197012A193B094C095D0906C0A6016E
:1002A00095012E193F09400B510B57FD08C01182D3
:1002B0003382228224833583468357831DC081E0A5
:1002C00081833382228288279927DC01821B930B4A
:1002D000A40BB50B84839583A683B7830DC0220F2F
:1002E000331F441F551F24833583468357838281E0
:1002F000938101979383828324813581468157813D
:10030000DA01C9010197A109B1098F5F9F4FAF4F72
:10031000BF4328F30BC0918333822282EA0CFB1C7B
:100320000C1D1D1DE482F5820683178383E0808304
:10033000248135814681578157FF1AC0C901AA27F8
:1003400097FDA095BA2F81709070A070B0705695EF
:10035000479537952795822B932BA42BB52B848318
:100360009583A683B7838281938101969383828349
:10037000DF0101C0D201CD01CDB7DEB7E2E10C94BF
:10038000C334A0E2B0E0E7ECF1E00C94B33469834D
:100390007A838B839C832D833E834F835887E9E048
:1003A000EE2EF12CEC0EFD1ECE010196B7010E943F
:1003B000A4068E010F5E1F4FCE010596B8010E9464
:1003C000A4068A8991E089278A8BC701B801AE010A
:1003D000475E5F4F0E9475000E94CF05A096E6E041
:1003E0000C94CF34A0E2B0E0E8EFF1E00C94B33429
:1003F00069837A838B839C832D833E834F835887C5
:10040000F9E0EF2EF12CEC0EFD1ECE010196B701A6
:100410000E94A4068E010F5E1F4FCE010596B80103
:100420000E94A406C701B801AE01475E5F4F0E945B
:1004300075000E94CF05A096E6E00C94CF34A0E2B0
:10044000B0E0E5E2F2E00C94A73469837A838B8311
:100450009C832D833E834F835887CE010196BE0136
:10046000675F7F4F0E94A406CE010596BE016F5EB6
:100470007F4F0E94A4069985923088F08989823046
:10048000C8F0943019F4823051F404C0843029F457
:10049000923081F482E690E0C6C0923049F420E0C8
:1004A0009A858A89981321E02A87CE010996BBC0D4
:1004B000823049F420E09A858A89981321E02A8BBA
:1004C000CE014196B0C02D843E844F8458886D88FB
:1004D0007E888F88988CEE24FF248701AA24BB2471
:1004E000650140E050E060E070E0E0E0F0E0C10174
:1004F00081709070892BE9F0E60CF71C081D191D1E
:100500009A01AB012A0D3B1D4C1D5D1D80E090E062
:10051000A0E0B0E0E614F7040805190520F481E036
:1005200090E0A0E0B0E0BA01A901480F591F6A1F8E
:100530007B1FAA0CBB1CCC1CDD1C97FE08C081E0F5
:1005400090E0A0E0B0E0A82AB92ACA2ADB2A3196B6
:10055000E032F10549F0660C771C881C991C569412
:10056000479437942794C3CFFA85EA892B893C892D
:100570008B859C85280F391F2E5F3F4F17C0CA01FE
:1005800081709070892B61F016950795F794E79428
:1005900080E090E0A0E0B0E8E82AF92A0A2B1B2BC3
:1005A00076956795579547952F5F3F4F77FDE7CF36
:1005B0000CC0440F551F661F771F17FD4160EE0CDE
:1005C000FF1C001F111F21503040403090E05907A0
:1005D00090E0690790E4790760F32B8F3C8FDB0193
:1005E000CA018F779070A070B07080349105A1051A
:1005F000B10561F447FD0AC0E114F10401051105DC
:1006000029F0405C5F4F6F4F7F4F40781A8EFE1786
:1006100011F081E08A8F4D8F5E8F6F8F78A383E01A
:10062000898FCE0149960E94CF05A096E2E10C94F5
:10063000C334A8E1B0E0EFE1F3E00C94AF34698398
:100640007A838B839C832D833E834F835887B9E0C5
:10065000EB2EF12CEC0EFD1ECE010196B7010E948F
:10066000A4068E010F5E1F4FCE010596B8010E94B1
:10067000A4062985223008F47EC03989323010F46E
:10068000B8017CC08A859A8989278A87243011F02D
:10069000223031F4231709F06EC062E670E06EC0BC
:1006A000343039F41D861E861F86188A1C861B86E8
:1006B00004C0323021F484E08987B7015FC02B8504
:1006C0003C858B899C89281B390B3C872B87ED84C3
:1006D000FE840F851889AD88BE88CF88D88CEA142F
:1006E000FB040C051D0540F4EE0CFF1C001F111F40
:1006F000215030403C872B8720E030E040E050E044
:1007000080E090E0A0E0B0E460E070E0EA14FB0478
:100710000C051D0540F0282B392B4A2B5B2BEA18C2
:10072000FB080C091D09B695A79597958795EE0CC2
:10073000FF1C001F111F6F5F7F4F6F31710531F775
:10074000DA01C9018F779070A070B0708034910584
:10075000A105B10561F427FD0AC0E114F10401050A
:10076000110529F0205C3F4F4F4F5F4F20782D87B8
:100770003E874F87588BBE01675F7F4FCB010E943A
:10078000CF056896EAE00C94CB34A8E1B0E0EBEC3E
:10079000F3E00C94B33469837A838B839C832D8339
:1007A0003E834F83588789E0E82EF12CEC0EFD1E26
:1007B000CE010196B7010E94A4068E010F5E1F4F65
:1007C000CE010596B8010E94A4068985823040F0CA
:1007D0008989823028F0C701B8010E941C0701C036
:1007E0008FEF6896E6E00C94CF34A8E1B0E0EBEF31
:1007F000F3E00C94B33469837A838B839C832D83D9
:100800003E834F83588789E0E82EF12CEC0EFD1EC5
:10081000CE010196B7010E94A4068E010F5E1F4F04
:10082000CE010596B8010E94A4068985823040F069
:100830008989823028F0C701B8010E941C0701C0D5
:100840008FEF6896E6E00C94CF34A8E1B0E0EBE2DD
:10085000F4E00C94B33469837A838B839C832D8377
:100860003E834F83588789E0E82EF12CEC0EFD1E65
:10087000CE010196B7010E94A4068E010F5E1F4FA4
:10088000CE010596B8010E94A4068985823040F009
:100890008989823028F0C701B8010E941C0701C075
:1008A00081E06896E6E00C94CF34A8E0B0E0EBE598
:1008B000F4E00C94B0349B01AC0183E08983DA014D
:1008C000C9018827B7FD83959927AA27BB27B82E8A
:1008D000211531054105510519F482E089833AC09B
:1008E0008823A9F0203080E0380780E0480780E8BE
:1008F000580729F460E070E080E09FEC30C0EE24FF
:10090000FF248701E21AF30A040B150B02C07901D8
:100910008A018EE1C82ED12CDC82CB82ED82FE8250
:100920000F831887C801B7010E9480050197181628
:10093000190684F4082E04C0EE0CFF1C001F111FC2
:100940000A94D2F7ED82FE820F831887C81AD90A5B
:10095000DC82CB82BA82CE0101960E94CF05289616
:10096000E9E00C94CC34ACE0B0E0E9EBF4E00C94BA
:10097000B73469837A838B839C83CE010196BE0151
:100980006B5F7F4F0E94A4068D81823061F18230BF
:1009900050F1843021F48E81882351F12EC02F81B3
:1009A000388537FD20C06E812F3131051CF066235C
:1009B000F9F023C08EE190E0821B930B29853A85E4
:1009C0004B855C8504C056954795379527958A9544
:1009D000D2F76623B1F050954095309521953F4F61
:1009E0004F4F5F4F0EC020E030E040E050E009C0C4
:1009F0002FEF3FEF4FEF5FE704C020E030E040E033
:100A000050E8B901CA012C96E2E00C94D334A8E076
:100A1000B0E0EDE0F5E00C94AF347B018C016115A2
:100A200071058105910519F482E0898360C083E036
:100A300089838EE1C82ED12CDC82CB82ED82FE82AE
:100A40000F831887C801B7010E948005FC01319708
:100A5000F7FF3BC0222733272E1B3F0B57016801AE
:100A6000022E04C0D694C794B794A7940A94D2F7E0
:100A700040E050E060E070E081E090E0A0E0B0E0B5
:100A800004C0880F991FAA1FBB1F2A95D2F7019790
:100A9000A109B1098E219F21A023B1230097A105AF
:100AA000B10521F041E050E060E070E04A295B29A7
:100AB0006C297D294D835E836F8378878EE190E07A
:100AC0008E1B9F0B9C838B8312C0309781F00E2E60
:100AD00004C0EE0CFF1C001F111F0A94D2F7ED8218
:100AE000FE820F831887CE1ADF0ADC82CB821A823D
:100AF000CE0101960E94CF052896EAE00C94CB34F3
:100B0000EF92FF920F931F937B018C0180E0E81618
:100B100080E0F80681E0080780E0180788F48FEF8E
:100B2000E816F1040105110531F028F088E090E0A5
:100B3000A0E0B0E017C080E090E0A0E0B0E012C01C
:100B400080E0E81680E0F80680E0080781E01807FA
:100B500028F088E190E0A0E0B0E004C080E190E0FF
:100B6000A0E0B0E020E230E040E050E0281B390B8C
:100B70004A0B5B0B04C016950795F794E7948A958A
:100B8000D2F7F701E659FF4F8081281B310941094F
:100B90005109C9011F910F91FF90EF900895DF92C5
:100BA000EF92FF920F931F93FC01E480F580068182
:100BB0001781D1808081823048F480E090E0A0E10C
:100BC000B0E0E82AF92A0A2B1B2BA5C0843009F4CF
:100BD0009FC0823021F4EE24FF24870105C0E11478
:100BE000F1040105110519F4E0E0F0E096C062811E
:100BF00073819FEF623879070CF05BC022E83FEF0A
:100C0000261B370B2A3131052CF020E030E040E084
:100C100050E02AC0B801A701022E04C0769567955E
:100C2000579547950A94D2F781E090E0A0E0B0E0B4
:100C300004C0880F991FAA1FBB1F2A95D2F70197DE
:100C4000A109B1098E219F21A023B1230097A105FD
:100C5000B10521F081E090E0A0E0B0E09A01AB01A5
:100C6000282B392B4A2B5B2BDA01C9018F77907027
:100C7000A070B07080349105A105B10539F427FF4B
:100C800009C0205C3F4F4F4F5F4F04C0215C3F4F76
:100C90004F4F5F4FE0E0F0E02030A0E03A07A0E0E7
:100CA0004A07A0E45A0710F0E1E0F0E079018A0178
:100CB00027C06038710564F5FB01E158FF4FD8018A
:100CC000C7018F779070A070B07080349105A10536
:100CD000B10539F4E7FE0DC080E490E0A0E0B0E09B
:100CE00004C08FE390E0A0E0B0E0E80EF91E0A1F18
:100CF0001B1F17FF05C016950795F794E7943196CB
:100D000087E016950795F794E7948A95D1F705C083
:100D1000EE24FF248701EFEFF0E06E2F6795662742
:100D20006795902F9F77D794DD24D7948E2F869543
:100D3000492F462B582F5D29B701CA011F910F91EA
:100D4000FF90EF90DF900895FC01DB01408151811D
:100D50002281622F6F7770E0221F2227221F93814A
:100D6000892F880F822B282F30E0991F9927991FF0
:100D700011969C93119721153105A9F5411551053F
:100D80006105710511F482E037C082E89FEF139688
:100D90009C938E9312979A01AB0167E0220F331F49
:100DA000441F551F6A95D1F783E08C930DC0220F25
:100DB000331F441F551F12968D919C9113970197D5
:100DC00013969C938E931297203080E0380780E032
:100DD000480780E4580758F314962D933D934D939C
:100DE0005C93179708952F3F310579F4411551050C
:100DF0006105710519F484E08C93089564FF03C0C4
:100E000081E08C9312C01C9210C02F573040139673
:100E10003C932E93129783E08C9387E0440F551FE9
:100E2000661F771F8A95D1F7706414964D935D9372
:100E30006D937C93179708951F93DC01FB019C91A0
:100E4000923008F447C08081823008F443C0943067
:100E500051F411961C91843099F58181682F70E0CE
:100E6000611B71093FC0843021F0923031F482302F
:100E7000B9F18181882389F12DC011961C911197B8
:100E80008230F1F081811817D9F412962D913C919E
:100E90001397828193818217930794F0281739075B
:100EA000BCF014968D919D910D90BC91A02D248144
:100EB000358146815781281739074A075B0718F49F
:100EC000112341F00AC082179307A407B50740F425
:100ED000112319F061E070E005C06FEF7FEF02C0F1
:100EE00060E070E0CB011F910895DF93CF930F92E4
:100EF000CDB7DEB78983E1E4F0E088E18083E1E407
:100F0000F0E01082E1E4F0E08981886080830F9056
:100F1000CF91DF910895DF93CF93CDB7DEB7E1E4B2
:100F2000F0E088E18083E1E4F0E01082CF91DF918E
:100F30000895DF93CF93CDB7DEB7A895CF91DF911A
:100F40000895DF93CF93CDB7DEB7A5E4B0E0E5E435
:100F5000F0E0808180648C93A5E4B0E0E5E4F0E00B
:100F6000808188608C93A5E4B0E0E5E4F0E08081C6
:100F70008F7E8C93A5E4B0E0E5E4F0E080818062B0
:100F80008C93A5E4B0E0E5E4F0E080818E7F8C9363
:100F9000A5E4B0E0E5E4F0E0808182608C93A5E414
:100FA000B0E0E5E4F0E080818B7F8C93CF91DF911E
:100FB0000895DF93CF9300D0CDB7DEB789836A83DE
:100FC00089816A8141E00E94440DA5E4B0E0E5E436
:100FD000F0E080818F7B8C93A5E4B0E0E5E4F0E065
:100FE0008081877F8C93AFE5B0E0EFE5F0E0808112
:100FF00080688C93A9E5B0E0E9E5F0E08081806449
:101000008C93A9E5B0E0E9E5F0E0808180688C93FD
:10101000A5E4B0E0E5E4F0E0808181608C93A5E494
:10102000B0E0E5E4F0E0808182608C93A5E4B0E07C
:10103000E5E4F0E080818B7F8C938A81809390013E
:1010400089818093910188E698E090938D01809347
:101050008C0187E798E090938F0180938E010F9029
:101060000F90CF91DF910895DF93CF930F92CDB77B
:10107000DEB789838981882F90E0A0E0B0E0BC01D1
:10108000CD010E940705DC01CB01BC01CD0120E0B0
:1010900030E048EC52E40E941903DC01CB01BC01B2
:1010A000CD0120E030E040E853E40E941F02DC0163
:1010B000CB01BC01CD010E944900DC01CB01898339
:1010C000E3E4F0E0898180830F90CF91DF91089570
:1010D000DF93CF93CDB7DEB78091910190919001CE
:1010E000692F41E00E94570ECF91DF910895DF9361
:1010F000CF93CDB7DEB78091910190919001692F88
:1011000040E00E94570ECF91DF910895DF93CF9377
:101110000F92CDB7DEB789838981882F90E0A0E058
:10112000B0E0BC01CD010E940705DC01CB01BC0190
:10113000CD0120E030E048EC52E40E941903DC01CC
:10114000CB01BC01CD0120E030E040E853E40E9437
:101150001F02DC01CB01BC01CD010E944900DC0172
:10116000CB018983E3E4F0E0898180830F90CF9104
:10117000DF910895DF93CF9300D000D0CDB7DEB7D5
:1011800069837A838B839C830F900F900F900F90CD
:10119000CF91DF910895DF93CF9300D0CDB7DEB725
:1011A0009A83898389819A8190938D0180938C01A0
:1011B0000F900F90CF91DF910895DF93CF9300D0E0
:1011C000CDB7DEB79A83898389819A8190938F0105
:1011D00080938E010F900F90CF91DF9108951F9211
:1011E0000F920FB60F9211242F933F934F935F935B
:1011F0006F937F938F939F93AF93BF93EF93FF93DF
:10120000DF93CF93CDB7DEB780918C0190918D01A4
:10121000009729F0E0918C01F0918D010995CF9113
:10122000DF91FF91EF91BF91AF919F918F917F914E
:101230006F915F914F913F912F910F900FBE0F9043
:101240001F9018951F920F920FB60F9211242F9393
:101250003F934F935F936F937F938F939F93AF933E
:10126000BF93EF93FF93DF93CF93CDB7DEB780911A
:101270008E0190918F01009729F0E0918E01F091FD
:101280008F010995CF91DF91FF91EF91BF91AF91C0
:101290009F918F917F916F915F914F913F912F918E
:1012A0000F900FBE0F901F901895DF93CF93CDB77F
:1012B000DEB7AFE4B0E0EFE4F0E080818F7B8C93A9
:1012C000AFE4B0E0EFE4F0E0808180688C93AFE4BD
:1012D000B0E0EFE4F0E080818E7F8C93AFE4B0E08B
:1012E000EFE4F0E0808182608C93AEE4B0E0EEE465
:1012F000F0E0808188608C93AEE4B0E0EEE4F0E052
:10130000808180618C93AEE4B0E0EEE4F0E0808117
:101310008E7F8C93AEE4B0E0EEE4F0E080818D7FD0
:101320008C93AEE4B0E0EEE4F0E0808184608C93D6
:10133000CF91DF910895DF93CF93CDB7DEB7A3E5CB
:10134000B0E0E3E5F0E0808180648C93A3E5B0E059
:10135000E3E5F0E0808188608C93A3E5B0E0E3E50D
:10136000F0E080818F7E8C93A3E5B0E0E3E5F0E0D0
:10137000808180628C93AFE5B0E0EFE5F0E08081A2
:1013800080688C93A9E5B0E0E9E5F0E080818260B7
:101390008C93A3E5B0E0E3E5F0E080818E7F8C9351
:1013A000A3E5B0E0E3E5F0E0808182608C93A3E503
:1013B000B0E0E3E5F0E080818B7F8C93CF91DF910B
:1013C0000895DF93CF93CDB7DEB7A9E5B0E0E9E5A7
:1013D000F0E080818E7F8C93A9E5B0E0E9E5F0E054
:1013E00080818D7F8C93CF91DF910895DF93CF9390
:1013F000CDB7DEB7AFE5B0E0EFE5F0E08081806823
:101400008C93A9E5B0E0E9E5F0E0808182608C93FF
:10141000CF91DF910895DF93CF9300D0CDB7DEB7A2
:1014200089836A8389816A8141E00E94440DA3E532
:10143000B0E0E3E5F0E080818F7B8C93A3E5B0E042
:10144000E3E5F0E08081877F8C93AFE5B0E0EFE5E6
:10145000F0E0808180688C93A9E5B0E0E9E5F0E0F8
:10146000808181608C93A9E5B0E0E9E5F0E08081BE
:1014700082608C93A3E5B0E0E3E5F0E080818160D9
:101480008C93A3E5B0E0E3E5F0E0808182608C938B
:10149000A3E5B0E0E3E5F0E080818B7F8C938FE9FA
:1014A0009AE090939301809392018EEA9AE0909350
:1014B0009501809394010F900F90CF91DF91089543
:1014C000DF93CF9300D00F92CDB7DEB789836A83C5
:1014D0004B838B81809396018A81809397018981C8
:1014E000882F90E0A0E0B0E0BC01CD010E9407058C
:1014F000DC01CB01BC01CD0120E030E048EC52E43E
:101500000E941903DC01CB01BC01CD0120E030E0D9
:1015100040E853E40E941F02DC01CB01BC01CD0175
:101520000E944900DC01CB018983ECE5F0E0898170
:1015300080830F900F900F90CF91DF910895DF93EC
:10154000CF93CDB7DEB78091970190919601692F27
:1015500041E00E94570ECF91DF910895DF93CF9322
:10156000CDB7DEB78091970190919601692F40E049
:101570000E94570ECF91DF910895DF93CF930F9282
:10158000CDB7DEB789838981882F90E0A0E0B0E0F5
:10159000BC01CD010E940705DC01CB01BC01CD01DE
:1015A00020E030E048EC52E40E941903DC01CB015A
:1015B000BC01CD0120E030E040E853E40E941F026E
:1015C000DC01CB01BC01CD010E944900DC01CB0153
:1015D0008983ECE5F0E0898180830F90CF91DF91E2
:1015E0000895DF93CF9300D000D0CDB7DEB76983E5
:1015F0007A838B839C830F900F900F900F90CF91E5
:10160000DF910895DF93CF9300D0CDB7DEB79A83F3
:10161000898389819A8190939301809392010F909D
:101620000F90CF91DF910895DF93CF9300D0CDB786
:10163000DEB79A83898389819A81909395018093FB
:1016400094010F900F90CF91DF9108951F920F9208
:101650000FB60F9211242F933F934F935F936F9385
:101660007F938F939F93AF93BF93EF93FF93DF93FA
:10167000CF93CDB7DEB780919201909193010097FF
:1016800029F0E0919201F09193010995CF91DF91BA
:10169000FF91EF91BF91AF919F918F917F916F914A
:1016A0005F914F913F912F910F900FBE0F901F9020
:1016B00018951F920F920FB60F9211242F933F93FC
:1016C0004F935F936F937F938F939F93AF93BF934A
:1016D000EF93FF93DF93CF93CDB7DEB78091940163
:1016E00090919501009729F0E0919401F091950176
:1016F0000995CF91DF91FF91EF91BF91AF919F91AC
:101700008F917F916F915F914F913F912F910F90AA
:101710000FBE0F901F901895DF93CF93CDB7DEB714
:10172000ADE2B0E0EDE2F0E0808180648C93ADE268
:10173000B0E0EDE2F0E0808188608C93ADE2B0E053
:10174000EDE2F0E0808184608C93CF91DF91089589
:10175000DF93CF9300D0CDB7DEB78983EFE2F0E01F
:1017600089818083EEE2F0E08081EFE2F0E0808129
:101770000F900F90CF91DF910895DF93CF93CDB766
:10178000DEB780E00E94D50BA5E5B0E0E5E5F0E02E
:1017900080818E7F8C93A5E5B0E0E5E5F0E0808167
:1017A00082608C93CF91DF910895DF93CF9300D027
:1017B0000F92CDB7DEB78983AFE5B0E0EFE5F0E09B
:1017C000808180688C938981282F30E03B832A8335
:1017D0008A819B818130910501F12A813B812230F0
:1017E000310589F18A819B81009709F041C0ABE501
:1017F000B0E0EBE5F0E0808180648C93A1E3B0E0A1
:10180000E1E3F0E080818B7F8C93A2E3B0E0E2E340
:10181000F0E0808184608C932BC0ABE5B0E0EBE519
:10182000F0E0808180688C93A1E3B0E0E1E3F0E038
:101830008081877F8C93A2E3B0E0E2E3F0E08081D7
:1018400088608C9315C0ABE5B0E0EBE5F0E08081FB
:1018500080628C93A7E3B0E0E7E3F0E080818B7FC8
:101860008C93A8E3B0E0E8E3F0E0808184608C939F
:101870000F900F900F90CF91DF910895DF93CF934A
:1018800000D00F92CDB7DEB789838981282F30E051
:101890003B832A838A819B818130910589F02A814B
:1018A0003B8122303105A1F08A819B810097B9F4F8
:1018B000ABE5B0E0EBE5F0E080818F7B8C930FC06F
:1018C000ABE5B0E0EBE5F0E080818F778C9307C06B
:1018D000ABE5B0E0EBE5F0E080818F7D8C930F907D
:1018E0000F900F90CF91DF910895DF93CF9300D0A9
:1018F000CDB7DEB79A83898389819A8190939901C4
:10190000809398010F900F90CF91DF910895DF930E
:10191000CF9300D0CDB7DEB79A83898389819A812E
:1019200090939B0180939A010F900F90CF91DF913C
:101930000895DF93CF9300D0CDB7DEB79A83898324
:1019400089819A8190939D0180939C010F900F90C3
:10195000CF91DF9108951F920F920FB60F9211242D
:101960002F933F934F935F936F937F938F939F93A7
:10197000AF93BF93EF93FF93DF93CF93CDB7DEB7D2
:101980008091980190919901009729F0E091980138
:10199000F09199010995CF91DF91FF91EF91BF915E
:1019A000AF919F918F917F916F915F914F913F91F7
:1019B0002F910F900FBE0F901F9018951F920F92AE
:1019C0000FB60F9211242F933F934F935F936F9312
:1019D0007F938F939F93AF93BF93EF93FF93DF9387
:1019E000CF93CDB7DEB780919A0190919B0100977C
:1019F00029F0E0919A01F0919B010995CF91DF9137
:101A0000FF91EF91BF91AF919F918F917F916F91D6
:101A10005F914F913F912F910F900FBE0F901F90AC
:101A200018951F920F920FB60F9211242F933F9388
:101A30004F935F936F937F938F939F93AF93BF93D6
:101A4000EF93FF93DF93CF93CDB7DEB780919C01E7
:101A500090919D01009729F0E0919C01F0919D01EA
:101A60000995CF91DF91FF91EF91BF91AF919F9138
:101A70008F917F916F915F914F913F912F910F9037
:101A80000FBE0F901F901895DF93CF93CDB7DEB7A1
:101A900028970FB6F894DEBF0FBECDBF89836A8347
:101AA0004B838A81883008F0F6C08B81882309F047
:101AB00077C08981282F30E038872F838F819885E0
:101AC0008130910559F12F813885223031052CF470
:101AD0008F819885009769F060C02F81388522300A
:101AE000310589F18F8198858330910509F440C0D3
:101AF00054C0AAE3B0E0EAE3F0E08081482F8A8195
:101B0000282F30E081E090E0022E02C0880F991F5C
:101B10000A94E2F7809584238C93BBC0A7E3B0E0DE
:101B2000E7E3F0E08081482F8A81282F30E081E0D0
:101B300090E0022E02C0880F991F0A94E2F7809568
:101B400084238C93A6C0A4E3B0E0E4E3F0E08081BA
:101B5000482F8A81282F30E081E090E0022E02C0D9
:101B6000880F991F0A94E2F7809584238C9391C083
:101B7000A1E3B0E0E1E3F0E08081482F8A81282FE3
:101B800030E081E090E0022E02C0880F991F0A9495
:101B9000E2F7809584238C937CC091E09E837DC086
:101BA0008B81813009F072C08981282F30E03D831C
:101BB0002C838C819D818130910549F12C813D815F
:101BC000223031052CF48C819D81009761F05BC03F
:101BD0002C813D812230310571F18C819D818330D2
:101BE0009105E9F150C0AAE3B0E0EAE3F0E08081BA
:101BF000482F8A81282F30E081E090E0022E02C039
:101C0000880F991F0A94E2F7842B8C9342C0A7E3B4
:101C1000B0E0E7E3F0E08081482F8A81282F30E0B0
:101C200081E090E0022E02C0880F991F0A94E2F72B
:101C3000842B8C932EC0A4E3B0E0E4E3F0E0808139
:101C4000482F8A81282F30E081E090E0022E02C0E8
:101C5000880F991F0A94E2F7842B8C931AC0A1E392
:101C6000B0E0E1E3F0E08081482F8A81282F30E066
:101C700081E090E0022E02C0880F991F0A94E2F7DB
:101C8000842B8C9306C091E09E8307C023E02E83B3
:101C900004C01E8202C032E03E838E8128960FB6B9
:101CA000F894DEBF0FBECDBFCF91DF910895DF93D3
:101CB000CF93CDB7DEB728970FB6F894DEBF0FBE2F
:101CC000CDBF89836A834B838A81883008F0F6C050
:101CD0008B81882309F077C08981282F30E03887ED
:101CE0002F838F8198858130910559F12F81388517
:101CF000223031052CF48F819885009769F060C0FF
:101D00002F8138852230310589F18F819885833084
:101D1000910509F440C054C0ABE3B0E0EBE3F0E060
:101D20008081482F8A81282F30E081E090E0022EC8
:101D300002C0880F991F0A94E2F7809584238C9340
:101D4000BBC0A8E3B0E0E8E3F0E08081482F8A81DF
:101D5000282F30E081E090E0022E02C0880F991F0A
:101D60000A94E2F7809584238C93A6C0A5E3B0E0A3
:101D7000E5E3F0E08081482F8A81282F30E081E080
:101D800090E0022E02C0880F991F0A94E2F7809516
:101D900084238C9391C0A2E3B0E0E2E3F0E0808181
:101DA000482F8A81282F30E081E090E0022E02C087
:101DB000880F991F0A94E2F7809584238C937CC046
:101DC00091E09E837DC08B81813009F072C0898152
:101DD000282F30E03D832C838C819D8181309105BB
:101DE00049F12C813D81223031052CF48C819D817B
:101DF000009761F05BC02C813D812230310571F18B
:101E00008C819D8183309105E9F150C0ABE3B0E056
:101E1000EBE3F0E08081482F8A81282F30E081E0D9
:101E200090E0022E02C0880F991F0A94E2F7842BDB
:101E30008C9342C0A8E3B0E0E8E3F0E08081482F53
:101E40008A81282F30E081E090E0022E02C0880FC6
:101E5000991F0A94E2F7842B8C932EC0A5E3B0E07F
:101E6000E5E3F0E08081482F8A81282F30E081E08F
:101E700090E0022E02C0880F991F0A94E2F7842B8B
:101E80008C931AC0A2E3B0E0E2E3F0E08081482F37
:101E90008A81282F30E081E090E0022E02C0880F76
:101EA000991F0A94E2F7842B8C9306C091E09E83DD
:101EB00007C023E02E8304C01E8202C032E03E83AE
:101EC0008E8128960FB6F894DEBF0FBECDBFCF919E
:101ED000DF910895DF93CF93CDB7DEB727970FB685
:101EE000F894DEBF0FBECDBF89836A835C834B83CA
:101EF0008A81883008F076C08981282F30E03F83BE
:101F00002E834E815F814130510559F18E819F8131
:101F10008230910534F42E813F812115310569F01D
:101F20005CC04E815F814230510579F18E819F8185
:101F30008330910509F43DC050C0E9E3F0E08081B1
:101F4000282F30E08A81882F90E0A90102C05595A2
:101F500047958A95E2F7CA018170EB81FC81808305
:101F60003FC0E6E3F0E08081282F30E08A81882FAF
:101F700090E0A90102C0559547958A95E2F7CA01FC
:101F80008170EB81FC8180832BC0E3E3F0E08081F2
:101F9000282F30E08A81882F90E0A90102C0559552
:101FA00047958A95E2F7CA018170EB81FC818083B5
:101FB00017C0E0E3F0E08081282F30E08A81882F8D
:101FC00090E0A90102C0559547958A95E2F7CA01AC
:101FD0008170EB81FC81808303C051E05D8304C08C
:101FE0001D8202C082E08D838D8127960FB6F89402
:101FF000DEBF0FBECDBFCF91DF910895DF93CF93AA
:1020000000D000D00F92CDB7DEB789836A83898173
:10201000282F30E03D832C838C819D818130910578
:10202000D1F02C813D81223031052CF48C819D81B1
:10203000009761F01FC02C813D812230310581F075
:102040008C819D818330910581F014C0EAE3F0E03A
:102050008A81808312C0E7E3F0E08A8180830DC02B
:10206000E4E3F0E08A81808308C0E1E3F0E08A8164
:10207000808303C091E09B8301C01B828B810F9002
:102080000F900F900F900F90CF91DF910895DF93F5
:10209000CF9300D000D00F92CDB7DEB789836A838B
:1020A0008981282F30E03D832C838C819D81813074
:1020B0009105D1F02C813D81223031052CF48C81A9
:1020C0009D81009761F01FC02C813D812230310538
:1020D00081F08C819D818330910581F014C0EBE308
:1020E000F0E08A81808312C0E8E3F0E08A81808397
:1020F0000DC0E5E3F0E08A81808308C0E2E3F0E010
:102100008A81808303C091E09B8301C01B828B8105
:102110000F900F900F900F900F90CF91DF91089537
:10212000DF93CF9300D000D000D0CDB7DEB7898346
:102130007B836A838A819B81009709F440C08981EF
:10214000282F30E03E832D838D819E818130910543
:10215000E1F02D813E81223031052CF48D819E816C
:10216000009761F027C02D813E8122303105A1F01A
:102170008D819E8183309105B1F01CC0E9E3F0E0D0
:102180008081EA81FB81808318C0E6E3F0E08081F2
:10219000EA81FB81808311C0E3E3F0E08081EA8182
:1021A000FB8180830AC0E0E3F0E08081EA81FB816B
:1021B000808303C091E09C8304C01C8202C025E0A0
:1021C0002C838C8126960FB6F894DEBF0FBECDBF50
:1021D000CF91DF910895DF93CF93CDB7DEB7A6E21D
:1021E000B0E0E6E2F0E0808180688C93A6E2B0E0A7
:1021F000E6E2F0E0808184608C93A6E2B0E0E6E263
:10220000F0E0808182608C93A6E2B0E0E6E2F0E04C
:1022100080818E7F8C93A7E2B0E0E7E2F0E08081DE
:102220008F778C93A7E2B0E0E7E2F0E080818064F2
:102230008C93CF91DF910895DF93CF9300D00F92CD
:10224000CDB7DEB78983A6E2B0E0E6E2F0E08081B8
:1022500080648C938981282F30E03B832A838A8194
:102260009B818330910509F49BC02A813B812430F6
:1022700031058CF48A819B818130910509F448C035
:102280002A813B81223031050CF066C08A819B8116
:102290000097D1F038C12A813B812530310509F4FE
:1022A000C7C08A819B81853091050CF49DC02A812D
:1022B0003B812630310509F4DFC08A819B8187305C
:1022C000910509F4FDC01FC1A7E2B0E0E7E2F0E02C
:1022D00080818E7F8C93A7E2B0E0E7E2F0E080811E
:1022E0008D7F8C93A7E2B0E0E7E2F0E080818B7F06
:1022F0008C93A7E2B0E0E7E2F0E08081877F8C93E7
:10230000A7E2B0E0E7E2F0E080818F7E8C93FBC033
:10231000A7E2B0E0E7E2F0E0808181608C93A7E281
:10232000B0E0E7E2F0E080818D7F8C93A7E2B0E03F
:10233000E7E2F0E080818B7F8C93A7E2B0E0E7E2F8
:10234000F0E08081877F8C93A7E2B0E0E7E2F0E0E5
:1023500080818F7E8C93D7C0A7E2B0E0E7E2F0E007
:10236000808181608C93A7E2B0E0E7E2F0E08081B9
:102370008D7F8C93A7E2B0E0E7E2F0E080818B7F75
:102380008C93A7E2B0E0E7E2F0E08081877F8C9356
:10239000A7E2B0E0E7E2F0E080818F7E8C93B3C0EB
:1023A000A7E2B0E0E7E2F0E0808181608C93A7E2F1
:1023B000B0E0E7E2F0E0808182608C93A7E2B0E0D9
:1023C000E7E2F0E080818B7F8C93A7E2B0E0E7E268
:1023D000F0E08081877F8C93A7E2B0E0E7E2F0E055
:1023E00080818F7E8C938FC0A7E2B0E0E7E2F0E0BF
:1023F00080818E7F8C93A7E2B0E0E7E2F0E08081FD
:102400008D7F8C93A7E2B0E0E7E2F0E0808184600A
:102410008C93A7E2B0E0E7E2F0E08081877F8C93C5
:10242000A7E2B0E0E7E2F0E080818F7E8C936BC0A2
:10243000A7E2B0E0E7E2F0E0808181608C93A7E260
:10244000B0E0E7E2F0E080818D7F8C93A7E2B0E01E
:10245000E7E2F0E0808184608C93A7E2B0E0E7E2FD
:10246000F0E08081877F8C93A7E2B0E0E7E2F0E0C4
:1024700080818F7E8C9347C0A7E2B0E0E7E2F0E076
:1024800080818E7F8C93A7E2B0E0E7E2F0E080816C
:1024900082608C93A7E2B0E0E7E2F0E080818460A4
:1024A0008C93A7E2B0E0E7E2F0E08081877F8C9335
:1024B000A7E2B0E0E7E2F0E080818F7E8C9323C05A
:1024C000A7E2B0E0E7E2F0E0808181608C93A7E2D0
:1024D000B0E0E7E2F0E0808182608C93A7E2B0E0B8
:1024E000E7E2F0E0808184608C93A7E2B0E0E7E26D
:1024F000F0E08081877F8C93A7E2B0E0E7E2F0E034
:1025000080818F7E8C930F900F900F90CF91DF91F1
:102510000895DF93CF9300D0CDB7DEB7E6E2F0E0C9
:10252000808182958F70882F90E0817090700097E5
:10253000A9F3A6E2B0E0E6E2F0E0808180618C934E
:10254000E4E2F0E08081882F90E09A838983E5E2DD
:10255000F0E08081882F90E0982F88279C01898166
:102560009A81820F931F9A83898389819A810F9020
:102570000F90CF91DF910895DF93CF93CDB7DEB762
:10258000E4E2F0E08081882F90E0CF91DF91089520
:10259000DF93CF93CDB7DEB7A6E2B0E0E6E2F0E09E
:1025A000808188608C93AFE5B0E0EFE5F0E080815A
:1025B00080688C93CF91DF910895DF93CF9300D003
:1025C000CDB7DEB79A83898389819A8190939F01E1
:1025D00080939E010F900F90CF91DF9108951F92ED
:1025E0000F920FB60F9211242F933F934F935F9347
:1025F0006F937F938F939F93AF93BF93EF93FF93CB
:10260000DF93CF93CDB7DEB780919E0190919F016C
:10261000009729F0E0919E01F0919F010995CF91DB
:10262000DF91FF91EF91BF91AF919F918F917F913A
:102630006F915F914F913F912F910F900FBE0F902F
:102640001F901895DF93CF9300D000D00F92CDB795
:10265000DEB79A838983E981FA818081E981FA81F1
:102660009181692F40E00E94440DE981FA818281C5
:10267000882309F07DC0E981FA818081282F30E02C
:102680003D832C838C819D818130910561F12C816A
:102690003D81223031052CF48C819D81009769F0B9
:1026A00064C02C813D812230310599F18C819D815E
:1026B0008330910509F443C058C0ABE3B0E0EBE3CD
:1026C000F0E08081482FE981FA818181282F30E074
:1026D00081E090E0022E02C0880F991F0A94E2F771
:1026E000842B8C9345C0A8E3B0E0E8E3F0E0808160
:1026F000482FE981FA818181282F30E081E090E044
:10270000022E02C0880F991F0A94E2F7842B8C9343
:102710002FC0A5E3B0E0E5E3F0E08081482FE98138
:10272000FA818181282F30E081E090E0022E02C002
:10273000880F991F0A94E2F7842B8C9319C0A2E3A7
:10274000B0E0E2E3F0E08081482FE981FA81818105
:10275000282F30E081E090E0022E02C0880F991F00
:102760000A94E2F7842B8C9303C091E09B8301C011
:102770001B828B810F900F900F900F900F90CF9135
:10278000DF910895DF93CF9300D000D0CDB7DEB7AF
:102790009A8389837C836B83E981FA818081E981D3
:1027A000FA8191812B813C81692FA9010E946A0FD6
:1027B00080E00F900F900F900F90CF91DF910895D0
:1027C000DF93CF9300D000D00F92CDB7DEB79C83BC
:1027D0008B831A82EB81FC818081EB81FC8191816A
:1027E000692F41E00E94440D89838981882311F07B
:1027F00081E08A83EB81FC818081EB81FC81928185
:10280000692F41E00E94440D89838981882311F05A
:1028100081E08A83EB81FC818081EB81FC81938163
:10282000692F41E00E94440D89838981882311F03A
:1028300081E08A83EB81FC818081EB81FC81948142
:10284000692F41E00E94440D89838981882311F01A
:1028500081E08A838A81813019F481E08D8301C00F
:102860001D828D810F900F900F900F900F90CF9140
:10287000DF910895DF93CF93CDB7DEB72B970FB6D7
:10288000F894DEBF0FBECDBF98878F837A876987A4
:10289000EF81F8858681882309F097C0EF81F8855C
:1028A0008581843009F043C089859A85CC01A0E0F8
:1028B000B0E0BC01CD010E940705DC01CB01BC01E9
:1028C000CD0123EB3AEE43E35EE30E941903DC0102
:1028D000CB01BC01CD0120E030E040E85FE30E9485
:1028E000F201DC01CB01BC01CD010E944900DC01F9
:1028F000CB019E838D838D819E819695879596953C
:1029000087959C838B831A82198209C08F81988551
:102910000E94901589819A8101969A8389832981E1
:102920003A818B819C812817390780F3EEC0EF81B3
:10293000F8858581883009F045C089859A85CC0164
:10294000A0E0B0E0BC01CD010E940705DC01CB0195
:10295000BC01CD012CEA3FEF43EB5DE30E9419037C
:10296000DC01CB01BC01CD0120E030E040E85FE3B9
:102970000E94F201DC01CB01BC01CD010E944900A3
:10298000DC01CB019E838D838D819E8196958795F9
:1029900096958795969587959C838B831A82198245
:1029A00009C08F8198850E948A1A89819A8101962F
:1029B0009A83898329813A818B819C8128173907E1
:1029C00080F3A3C083E08B87A1C0EF81F885868167
:1029D000813009F097C0EF81F8858581843009F056
:1029E00043C089859A85CC01A0E0B0E0BC01CD014F
:1029F0000E940705DC01CB01BC01CD0123EB3AEEBF
:102A000043E35EE30E941903DC01CB01BC01CD016D
:102A100020E030E040E85FE30E94F201DC01CB01FE
:102A2000BC01CD010E944900DC01CB019E838D8356
:102A30008D819E8196958795969587959C838B83AE
:102A40001A82198209C08F8198850E940D18898188
:102A50009A8101969A83898329813A818B819C810D
:102A60002817390780F351C0EF81F88585818830B8
:102A700009F045C089859A85CC01A0E0B0E0BC0191
:102A8000CD010E940705DC01CB01BC01CD012CEA80
:102A90003FEF43EB5DE30E941903DC01CB01BC0176
:102AA000CD0120E030E040E85FE30E94F201DC016C
:102AB000CB01BC01CD010E944900DC01CB019E830A
:102AC0008D838D819E819695879596958795969510
:102AD00087959C838B831A82198209C08F81988580
:102AE0000E944E2189819A8101969A838983298146
:102AF0003A818B819C812817390780F306C083E0D7
:102B00008B8704C082E08B8701C01B868B852B9648
:102B10000FB6F894DEBF0FBECDBFCF91DF91089501
:102B2000DF93CF93CDB7DEB7EA970FB6F894DEBF49
:102B30000FBECDBF9AAF89AFE9ADFAAD8081E9ADE7
:102B4000FAAD9181692F40E00E94570EE9ADFAADD0
:102B50008081E9ADFAAD9281692F41E00E94570E64
:102B6000E9ADFAAD8081E9ADFAAD9381692F41E01D
:102B70000E94570EE9ADFAAD8081E9ADFAAD9481BE
:102B8000692F41E00E94570E80E090E0A0E0B0E4A1
:102B90008DAB9EABAFABB8AF6DA97EA98FA998AD39
:102BA00020E030E04AEF54E40E941F02DC01CB0138
:102BB00089AB9AABABABBCAB69A97AA98BA99CA931
:102BC00020E030E040E85FE30E94250488232CF4F5
:102BD00081E090E098AB8FA73FC069A97AA98BA943
:102BE0009CA920E03FEF4FE757E40E94C503181669
:102BF0004CF56DA97EA98FA998AD20E030E040E2A8
:102C000051E40E941F02DC01CB01BC01CD010E94F6
:102C10004900DC01CB0198AB8FA70FC088EC90E096
:102C20009EA78DA78DA59EA50197F1F79EA78DA7BD
:102C30008FA598A9019798AB8FA78FA598A9009702
:102C400069F714C069A97AA98BA99CA90E944900B7
:102C5000DC01CB0198AB8FA78FA598A99CA78BA768
:102C60008BA59CA50197F1F79CA78BA7E9ADFAADC1
:102C70008081E9ADFAAD9181692F41E00E94570E44
:102C8000E9ADFAAD8081E9ADFAAD9281692F40E0FE
:102C90000E94570EE9ADFAAD8081E9ADFAAD93819E
:102CA000692F41E00E94570EE9ADFAAD8081E9AD90
:102CB000FAAD9481692F41E00E94570E80E090E0C8
:102CC000A0E0B0E48FA398A7A9A7BAA76FA178A5A1
:102CD00089A59AA520E030E04AEF54E40E941F0243
:102CE000DC01CB018BA39CA3ADA3BEA36BA17CA1F4
:102CF0008DA19EA120E030E040E85FE30E94250422
:102D000088232CF481E090E09AA389A33FC06BA1B3
:102D10007CA18DA19EA120E03FEF4FE757E40E94E8
:102D2000C50318164CF56FA178A589A59AA520E0D2
:102D300030E040E251E40E941F02DC01CB01BC0103
:102D4000CD010E944900DC01CB019AA389A30FC0E9
:102D500088EC90E098A38F8F8F8D98A10197F1F761
:102D600098A38F8F89A19AA101979AA389A389A17A
:102D70009AA1009769F714C06BA17CA18DA19EA1B7
:102D80000E944900DC01CB019AA389A389A19AA1E1
:102D90009E8F8D8F8D8D9E8D0197F1F79E8F8D8FDC
:102DA000E9ADFAAD8081E9ADFAAD9181692F41E0DD
:102DB0000E94570EE9ADFAAD8081E9ADFAAD92817E
:102DC000692F41E00E94570EE9ADFAAD8081E9AD6F
:102DD000FAAD9381692F40E00E94570EE9ADFAAD3C
:102DE0008081E9ADFAAD9481692F41E00E94570ED0
:102DF00080E090E0A0E0B0E4898F9A8FAB8FBC8F29
:102E0000698D7A8D8B8D9C8D20E030E04AEF54E403
:102E10000E941F02DC01CB018D8B9E8BAF8BB88F84
:102E20006D897E898F89988D20E030E040E85FE3EE
:102E30000E94250488232CF481E090E09C8B8B8BEE
:102E40003FC06D897E898F89988D20E03FEF4FE7E5
:102E500057E40E94C50318164CF5698D7A8D8B8D49
:102E60009C8D20E030E040E251E40E941F02DC0132
:102E7000CB01BC01CD010E944900DC01CB019C8B40
:102E80008B8B0FC088EC90E09A8B898B89899A890B
:102E90000197F1F79A8B898B8B899C8901979C8B81
:102EA0008B8B8B899C89009769F714C06D897E890B
:102EB0008F89988D0E944900DC01CB019C8B8B8B04
:102EC0008B899C89988B8F878F8598890197F1F7DB
:102ED000988B8F87E9ADFAAD8081E9ADFAAD91812C
:102EE000692F41E00E94570EE9ADFAAD8081E9AD4E
:102EF000FAAD9281692F41E00E94570EE9ADFAAD1B
:102F00008081E9ADFAAD9381692F41E00E94570EAF
:102F1000E9ADFAAD8081E9ADFAAD9481692F40E069
:102F20000E94570E80E090E0A0E0B0E48B879C8781
:102F3000AD87BE876B857C858D859E8520E030E0E2
:102F40004AEF54E40E941F02DC01CB018F83988773
:102F5000A987BA876F81788589859A8520E030E0D6
:102F600040E85FE30E94250488232CF481E090E090
:102F70009E838D833FC06F81788589859A8520E007
:102F80003FEF4FE757E40E94C50318164CF56B85D9
:102F90007C858D859E8520E030E040E251E40E94F2
:102FA0001F02DC01CB01BC01CD010E944900DC0104
:102FB000CB019E838D830FC088EC90E09C838B8334
:102FC0008B819C810197F1F79C838B838D819E81FE
:102FD00001979E838D838D819E81009769F714C030
:102FE0006F81788589859A850E944900DC01CB0133
:102FF0009E838D838D819E819A83898389819A8125
:103000000197F1F79A838983EA960FB6F894DEBFA9
:103010000FBECDBFCF91DF910895DF93CF93CDB792
:10302000DEB7EA970FB6F894DEBF0FBECDBF9AAFFA
:1030300089AFE9ADFAAD8081E9ADFAAD9181692F33
:1030400040E00E94570EE9ADFAAD8081E9ADFAADDE
:103050009481692F41E00E94570EE9ADFAAD80815D
:10306000E9ADFAAD9381692F41E00E94570EE9ADB9
:10307000FAAD8081E9ADFAAD9281692F41E00E94FD
:10308000570E80E090E0A0E0B0E48DAB9EABAFAB1C
:10309000B8AF6DA97EA98FA998AD20E030E04AEFC6
:1030A00054E40E941F02DC01CB0189AB9AABABABAD
:1030B000BCAB69A97AA98BA99CA920E030E040E8C3
:1030C0005FE30E94250488232CF481E090E098AB14
:1030D0008FA73FC069A97AA98BA99CA920E03FEFDF
:1030E0004FE757E40E94C50318164CF56DA97EA959
:1030F0008FA998AD20E030E040E251E40E941F0229
:10310000DC01CB01BC01CD010E944900DC01CB01F7
:1031100098AB8FA70FC088EC90E09EA78DA78DA5D8
:103120009EA50197F1F79EA78DA78FA598A9019756
:1031300098AB8FA78FA598A9009769F714C069A9C4
:103140007AA98BA99CA90E944900DC01CB0198AB0C
:103150008FA78FA598A99CA78BA78BA59CA5019746
:10316000F1F79CA78BA7E9ADFAAD8081E9ADFAAD87
:103170009181692F41E00E94570EE9ADFAAD80813F
:10318000E9ADFAAD9481692F40E00E94570EE9AD98
:10319000FAAD8081E9ADFAAD9381692F41E00E94DB
:1031A000570EE9ADFAAD8081E9ADFAAD9281692F94
:1031B00041E00E94570E80E090E0A0E0B0E48FA3D1
:1031C00098A7A9A7BAA76FA178A589A59AA520E075
:1031D00030E04AEF54E40E941F02DC01CB018BA3D4
:1031E0009CA3ADA3BEA36BA17CA18DA19EA120E059
:1031F00030E040E85FE30E94250488232CF481E05E
:1032000090E09AA389A33FC06BA17CA18DA19EA150
:1032100020E03FEF4FE757E40E94C50318164CF536
:103220006FA178A589A59AA520E030E040E251E49D
:103230000E941F02DC01CB01BC01CD010E944900AC
:10324000DC01CB019AA389A30FC088EC90E098A37E
:103250008F8F8F8D98A10197F1F798A38F8F89A1F8
:103260009AA101979AA389A389A19AA1009769F7C6
:1032700014C06BA17CA18DA19EA10E944900DC011C
:10328000CB019AA389A389A19AA19E8F8D8F8D8D41
:103290009E8D0197F1F79E8F8D8FE9ADFAAD8081FC
:1032A000E9ADFAAD9181692F41E00E94570EE9AD79
:1032B000FAAD8081E9ADFAAD9481692F41E00E94B9
:1032C000570EE9ADFAAD8081E9ADFAAD9381692F72
:1032D00040E00E94570EE9ADFAAD8081E9ADFAAD4C
:1032E0009281692F41E00E94570E80E090E0A0E0BB
:1032F000B0E4898F9A8FAB8FBC8F698D7A8D8B8D5F
:103300009C8D20E030E04AEF54E40E941F02DC0173
:10331000CB018D8B9E8BAF8BB88F6D897E898F890A
:10332000988D20E030E040E85FE30E942504882388
:103330002CF481E090E09C8B8B8B3FC06D897E8963
:103340008F89988D20E03FEF4FE757E40E94C50337
:1033500018164CF5698D7A8D8B8D9C8D20E030E0B0
:1033600040E251E40E941F02DC01CB01BC01CD010F
:103370000E944900DC01CB019C8B8B8B0FC088EC39
:1033800090E09A8B898B89899A890197F1F79A8BBA
:10339000898B8B899C8901979C8B8B8B8B899C89D2
:1033A000009769F714C06D897E898F89988D0E9476
:1033B0004900DC01CB019C8B8B8B8B899C89988B82
:1033C0008F878F8598890197F1F7988B8F87E9AD63
:1033D000FAAD8081E9ADFAAD9181692F41E00E949B
:1033E000570EE9ADFAAD8081E9ADFAAD9481692F50
:1033F00041E00E94570EE9ADFAAD8081E9ADFAAD2A
:103400009381692F41E00E94570EE9ADFAAD8081AA
:10341000E9ADFAAD9281692F40E00E94570E80E03D
:1034200090E0A0E0B0E48B879C87AD87BE876B857A
:103430007C858D859E8520E030E04AEF54E40E9433
:103440001F02DC01CB018F839887A987BA876F8120
:10345000788589859A8520E030E040E85FE30E9426
:10346000250488232CF481E090E09E838D833FC067
:103470006F81788589859A8520E03FEF4FE757E493
:103480000E94C50318164CF56B857C858D859E853D
:1034900020E030E040E251E40E941F02DC01CB0159
:1034A000BC01CD010E944900DC01CB019E838D83CC
:1034B0000FC088EC90E09C838B838B819C8101976B
:1034C000F1F79C838B838D819E8101979E838D83F1
:1034D0008D819E81009769F714C06F8178858985F9
:1034E0009A850E944900DC01CB019E838D838D81EA
:1034F0009E819A83898389819A810197F1F79A83C2
:103500008983EA960FB6F894DEBF0FBECDBFCF9188
:10351000DF9108950F931F93DF93CF93CDB7DEB75D
:10352000C257D0400FB6F894DEBF0FBECDBFFE012C
:10353000EF58FF4F91838083FE01EF58FF4F0190BA
:10354000F081E02D8081FE01EF58FF4F0190F08166
:10355000E02D9181692F40E00E94570EFE01EF5847
:10356000FF4F0190F081E02D8081FE01EF58FF4F69
:103570000190F081E02D9281692F41E00E94570E69
:10358000FE01EF58FF4F0190F081E02D8081FE0198
:10359000EF58FF4F0190F081E02D9381692F41E0BA
:1035A0000E94570EFE01EF58FF4F0190F081E02D71
:1035B0008081FE01EF58FF4F0190F081E02D948152
:1035C000692F41E00E94570EFE01E359FF4F80E052
:1035D00090E0A0E0B0E480839183A283B3838E0166
:1035E00007591F4FFE01E359FF4F608171818281AE
:1035F000938120E030E04AEF54E40E941F02DC0196
:10360000CB01F80180839183A283B383FE01E75944
:10361000FF4F608171818281938120E030E040E83A
:103620005FE30E942504882344F4FE01E959FF4F1B
:1036300081E090E09183808364C0FE01E759FF4FF1
:10364000608171818281938120E03FEF4FE757E4F1
:103650000E94C50318160CF043C0FE01E359FF4F4A
:10366000608171818281938120E030E040E251E409
:103670000E941F02DC01CB018E0109591F4FBC01C2
:10368000CD010E944900DC01CB01F80191838083C8
:103690001FC0FE01EB59FF4F88EC90E091838083BF
:1036A000FE01EB59FF4F808191810197F1F7FE01F7
:1036B000EB59FF4F91838083DE01A959BF4FFE0173
:1036C000E959FF4F80819181019711969C938E93C8
:1036D000FE01E959FF4F808191810097D1F627C003
:1036E0008E0109591F4FFE01E759FF4F608171811B
:1036F000828193810E944900DC01CB01F801918312
:103700008083DE01AD59BF4FFE01E959FF4F808133
:1037100091818D939C93FE01ED59FF4F80819181A2
:103720000197F1F7FE01ED59FF4F91838083FE0170
:10373000EF58FF4F0190F081E02D8081FE01EF589E
:10374000FF4F0190F081E02D9181692F40E00E94B0
:10375000570EFE01EF58FF4F0190F081E02D808160
:10376000FE01EF58FF4F0190F081E02D9281692F0B
:1037700040E00E94570EFE01EF58FF4F0190F0818C
:10378000E02D8081FE01EF58FF4F0190F081E02D88
:103790009381692F41E00E94570EFE01EF58FF4FC1
:1037A0000190F081E02D8081FE01EF58FF4F0190E4
:1037B000F081E02D9481692F41E00E94570EFE01B7
:1037C000E15AFF4F80E090E0A0E0B0E48083918375
:1037D000A283B3838E01055A1F4FFE01E15AFF4FAA
:1037E000608171818281938120E030E04AEF54E46E
:1037F0000E941F02DC01CB01F80180839183A28328
:10380000B383FE01E55AFF4F60817181828193810C
:1038100020E030E040E85FE30E942504882344F480
:10382000FE01E75AFF4F81E090E09183808364C0FE
:10383000FE01E55AFF4F608171818281938120E012
:103840003FEF4FE757E40E94C50318160CF043C042
:10385000FE01E15AFF4F608171818281938120E0F6
:1038600030E040E251E40E941F02DC01CB018E01F6
:10387000075A1F4FBC01CD010E944900DC01CB015A
:10388000F801918380831FC0FE01E95AFF4F88EC45
:1038900090E091838083FE01E95AFF4F80819181FE
:1038A0000197F1F7FE01E95AFF4F91838083DE0112
:1038B000A75ABF4FFE01E75AFF4F808191810197C0
:1038C00011969C938E93FE01E75AFF4F8081918160
:1038D0000097D1F627C08E01075A1F4FFE01E55A07
:1038E000FF4F60817181828193810E944900DC01D8
:1038F000CB01F80191838083DE01AB5ABF4FFE01FB
:10390000E75AFF4F808191818D939C93FE01EB5A82
:10391000FF4F808191810197F1F7FE01EB5AFF4F34
:1039200091838083FE01EF58FF4F0190F081E02DDD
:103930008081FE01EF58FF4F0190F081E02D9181D1
:10394000692F41E00E94570EFE01EF58FF4F019092
:10395000F081E02D8081FE01EF58FF4F0190F08152
:10396000E02D9281692F40E00E94570EFE01EF5832
:10397000FF4F0190F081E02D8081FE01EF58FF4F55
:103980000190F081E02D9381692F41E00E94570E54
:10399000FE01EF58FF4F0190F081E02D8081FE0184
:1039A000EF58FF4F0190F081E02D9481692F41E0A5
:1039B0000E94570EFE01EF5AFF4F80E090E0A0E01A
:1039C000B0E480839183A283B3838E01035B1F4F96
:1039D000FE01EF5AFF4F608171818281938120E067
:1039E00030E04AEF54E40E941F02DC01CB01F801F1
:1039F00080839183A283B383FE01E35BFF4F6081E9
:103A000071818281938120E030E040E85FE30E9491
:103A10002504882344F4FE01E55BFF4F81E090E03C
:103A20009183808364C0FE01E35BFF4F60817181FD
:103A30008281938120E03FEF4FE757E40E94C50366
:103A400018160CF043C0FE01EF5AFF4F60817181E0
:103A50008281938120E030E040E251E40E941F0225
:103A6000DC01CB018E01055B1F4FBC01CD010E9423
:103A70004900DC01CB01F801918380831FC0FE0166
:103A8000E75BFF4F88EC90E091838083FE01E75B6A
:103A9000FF4F808191810197F1F7FE01E75BFF4FB6
:103AA00091838083DE01A55BBF4FFE01E55BFF4F85
:103AB00080819181019711969C938E93FE01E55B25
:103AC000FF4F808191810097D1F627C08E01055B61
:103AD0001F4FFE01E35BFF4F608171818281938103
:103AE0000E944900DC01CB01F80191838083DE0153
:103AF000A95BBF4FFE01E55BFF4F808191818D93F4
:103B00009C93FE01E95BFF4F808191810197F1F762
:103B1000FE01E95BFF4F91838083FE01EF58FF4F69
:103B20000190F081E02D8081FE01EF58FF4F019060
:103B3000F081E02D9181692F41E00E94570EFE0136
:103B4000EF58FF4F0190F081E02D8081FE01EF588A
:103B5000FF4F0190F081E02D9281692F40E00E949B
:103B6000570EFE01EF58FF4F0190F081E02D80814C
:103B7000FE01EF58FF4F0190F081E02D9381692FF6
:103B800040E00E94570EFE01EF58FF4F0190F08178
:103B9000E02D8081FE01EF58FF4F0190F081E02D74
:103BA0009481692F41E00E94570EFE01ED5BFF4FAB
:103BB00080E090E0A0E0B0E480839183A283B383AF
:103BC0008E01015C1F4FFE01ED5BFF4F6081718133
:103BD0008281938120E030E04AEF54E40E941F028A
:103BE000DC01CB01F80180839183A283B383FE01C2
:103BF000FF96608171818281938120E030E040E80E
:103C00005FE30E94250488232CF481E090E09EAFBE
:103C10008DAF46C0FE01FF966081718182819381E4
:103C200020E03FEF4FE757E40E94C503181664F504
:103C3000FE01ED5BFF4F608171818281938120E005
:103C400030E040E251E40E941F02DC01CB01BC01E4
:103C5000CD010E944900DC01CB019EAF8DAF0FC0AA
:103C600088EC90E09CAF8BAF8BAD9CAD0197F1F7EA
:103C70009CAF8BAF8DAD9EAD01979EAF8DAF8DADDF
:103C80009EAD009769F716C0FE01FF9660817181B5
:103C9000828193810E944900DC01CB019EAF8DAFF0
:103CA0008DAD9EAD9AAF89AF89AD9AAD0197F1F711
:103CB0009AAF89AFFE01EF58FF4F0190F081E02DE0
:103CC0008081FE01EF58FF4F0190F081E02D91813E
:103CD000692F41E00E94570EFE01EF58FF4F0190FF
:103CE000F081E02D8081FE01EF58FF4F0190F081BF
:103CF000E02D9281692F41E00E94570EFE01EF589E
:103D0000FF4F0190F081E02D8081FE01EF58FF4FC1
:103D10000190F081E02D9381692F40E00E94570EC1
:103D2000FE01EF58FF4F0190F081E02D8081FE01F0
:103D3000EF58FF4F0190F081E02D9481692F41E011
:103D40000E94570E80E090E0A0E0B0E48DAB9EAB07
:103D5000AFABB8AF6DA97EA98FA998AD20E030E0D8
:103D60004AEF54E40E941F02DC01CB0189AB9AABFD
:103D7000ABABBCAB69A97AA98BA99CA920E030E0C8
:103D800040E85FE30E94250488232CF481E090E062
:103D900098AB8FA73FC069A97AA98BA99CA920E0FD
:103DA0003FEF4FE757E40E94C50318164CF56DA985
:103DB0007EA98FA998AD20E030E040E251E40E9456
:103DC0001F02DC01CB01BC01CD010E944900DC01D6
:103DD000CB0198AB8FA70FC088EC90E09EA78DA772
:103DE0008DA59EA50197F1F79EA78DA78FA598A9F0
:103DF000019798AB8FA78FA598A9009769F714C072
:103E000069A97AA98BA99CA90E944900DC01CB0170
:103E100098AB8FA78FA598A99CA78BA78BA59CA5CE
:103E20000197F1F79CA78BA7FE01EF58FF4F019078
:103E3000F081E02D8081FE01EF58FF4F0190F0816D
:103E4000E02D9181692F41E00E94570EFE01EF584D
:103E5000FF4F0190F081E02D8081FE01EF58FF4F70
:103E60000190F081E02D9281692F41E00E94570E70
:103E7000FE01EF58FF4F0190F081E02D8081FE019F
:103E8000EF58FF4F0190F081E02D9381692F40E0C2
:103E90000E94570EFE01EF58FF4F0190F081E02D78
:103EA0008081FE01EF58FF4F0190F081E02D948159
:103EB000692F40E00E94570E80E090E0A0E0B0E45F
:103EC0008FA398A7A9A7BAA76FA178A589A59AA536
:103ED00020E030E04AEF54E40E941F02DC01CB01F5
:103EE0008BA39CA3ADA3BEA36BA17CA18DA19EA11E
:103EF00020E030E040E85FE30E94250488232CF4B2
:103F000081E090E09AA389A33FC06BA17CA18DA121
:103F10009EA120E03FEF4FE757E40E94C50318162B
:103F20004CF56FA178A589A59AA520E030E040E284
:103F300051E40E941F02DC01CB01BC01CD010E94B3
:103F40004900DC01CB019AA389A30FC088EC90E063
:103F500098A38F8F8F8D98A10197F1F798A38F8FDA
:103F600089A19AA101979AA389A389A19AA10097EF
:103F700069F714C06BA17CA18DA19EA10E9449008C
:103F8000DC01CB019AA389A389A19AA19E8F8D8F71
:103F90008D8D9E8D0197F1F79E8F8D8FFE01EF58CD
:103FA000FF4F0190F081E02D8081FE01EF58FF4F1F
:103FB0000190F081E02D9181692F41E00E94570E20
:103FC000FE01EF58FF4F0190F081E02D8081FE014E
:103FD000EF58FF4F0190F081E02D9281692F41E071
:103FE0000E94570EFE01EF58FF4F0190F081E02D27
:103FF0008081FE01EF58FF4F0190F081E02D938109
:10400000692F41E00E94570EFE01EF58FF4F0190CB
:10401000F081E02D8081FE01EF58FF4F0190F0818B
:10402000E02D9481692F40E00E94570E80E090E0DF
:10403000A0E0B0E4898F9A8FAB8FBC8F698D7A8DA9
:104040008B8D9C8D20E030E04AEF54E40E941F02EB
:10405000DC01CB018D8B9E8BAF8BB88F6D897E89F8
:104060008F89988D20E030E040E85FE30E942504CE
:1040700088232CF481E090E09C8B8B8B3FC06D8972
:104080007E898F89988D20E03FEF4FE757E40E94AB
:10409000C50318164CF5698D7A8D8B8D9C8D20E0AB
:1040A00030E040E251E40E941F02DC01CB01BC0180
:1040B000CD010E944900DC01CB019C8B8B8B0FC092
:1040C00088EC90E09A8B898B89899A890197F1F71E
:1040D0009A8B898B8B899C8901979C8B8B8B8B8985
:1040E0009C89009769F714C06D897E898F89988DA6
:1040F0000E944900DC01CB019C8B8B8B8B899C89B6
:10410000988B8F878F8598890197F1F7988B8F8788
:10411000FE01EF58FF4F0190F081E02D8081FE01FC
:10412000EF58FF4F0190F081E02D9181692F40E021
:104130000E94570EFE01EF58FF4F0190F081E02DD5
:104140008081FE01EF58FF4F0190F081E02D9281B8
:10415000692F41E00E94570EFE01EF58FF4F01907A
:10416000F081E02D8081FE01EF58FF4F0190F0813A
:10417000E02D9381692F41E00E94570EFE01EF5818
:10418000FF4F0190F081E02D8081FE01EF58FF4F3D
:104190000190F081E02D9481692F40E00E94570E3C
:1041A00080E090E0A0E0B0E48B879C87AD87BE877D
:1041B0006B857C858D859E8520E030E04AEF54E458
:1041C0000E941F02DC01CB018F839887A987BA87E1
:1041D0006F81788589859A8520E030E040E85FE34B
:1041E0000E94250488232CF481E090E09E838D8337
:1041F0003FC06F81788589859A8520E03FEF4FE742
:1042000057E40E94C50318164CF56B857C858D8597
:104210009E8520E030E040E251E40E941F02DC0174
:10422000CB01BC01CD010E944900DC01CB019E8382
:104230008D830FC088EC90E09C838B838B819C8165
:104240000197F1F79C838B838D819E8101979E83DB
:104250008D838D819E81009769F714C06F81788569
:1042600089859A850E944900DC01CB019E838D835C
:104270008D819E819A83898389819A810197F1F743
:104280009A838983CE58DF4F0FB6F894DEBF0FBEF6
:10429000CDBFCF91DF911F910F9108950F931F9381
:1042A000DF93CF93CDB7DEB7C257D0400FB6F894A7
:1042B000DEBF0FBECDBFFE01EF58FF4F918380835D
:1042C000FE01EF58FF4F0190F081E02D8081FE014B
:1042D000EF58FF4F0190F081E02D9181692F40E070
:1042E0000E94570EFE01EF58FF4F0190F081E02D24
:1042F0008081FE01EF58FF4F0190F081E02D948105
:10430000692F41E00E94570EFE01EF58FF4F0190C8
:10431000F081E02D8081FE01EF58FF4F0190F08188
:10432000E02D9381692F41E00E94570EFE01EF5866
:10433000FF4F0190F081E02D8081FE01EF58FF4F8B
:104340000190F081E02D9281692F41E00E94570E8B
:10435000FE01E359FF4F80E090E0A0E0B0E48083ED
:104360009183A283B3838E0107591F4FFE01E35946
:10437000FF4F608171818281938120E030E04AEFBC
:1043800054E40E941F02DC01CB01F8018083918379
:10439000A283B383FE01E759FF4F6081718182815F
:1043A000938120E030E040E85FE30E942504882309
:1043B00044F4FE01E959FF4F81E090E0918380834E
:1043C00064C0FE01E759FF4F608171818281938152
:1043D00020E03FEF4FE757E40E94C50318160CF0AA
:1043E00043C0FE01E359FF4F608171818281938157
:1043F00020E030E040E251E40E941F02DC01CB01EA
:104400008E0109591F4FBC01CD010E944900DC01FA
:10441000CB01F801918380831FC0FE01EB59FF4F50
:1044200088EC90E091838083FE01EB59FF4F8081FF
:1044300091810197F1F7FE01EB59FF4F9183808342
:10444000DE01A959BF4FFE01E959FF4F80819181DB
:10445000019711969C938E93FE01E959FF4F80813D
:1044600091810097D1F627C08E0109591F4FFE0197
:10447000E759FF4F60817181828193810E944900D9
:10448000DC01CB01F80191838083DE01AD59BF4F80
:10449000FE01E959FF4F808191818D939C93FE012C
:1044A000ED59FF4F808191810197F1F7FE01ED59A0
:1044B000FF4F91838083FE01EF58FF4F0190F08101
:1044C000E02D8081FE01EF58FF4F0190F081E02D3B
:1044D0009181692F40E00E94570EFE01EF58FF4F77
:1044E0000190F081E02D8081FE01EF58FF4F019097
:1044F000F081E02D9481692F40E00E94570EFE016B
:10450000EF58FF4F0190F081E02D8081FE01EF58C0
:10451000FF4F0190F081E02D9381692F41E00E94CF
:10452000570EFE01EF58FF4F0190F081E02D808182
:10453000FE01EF58FF4F0190F081E02D9281692F2D
:1045400041E00E94570EFE01E15AFF4F80E090E0EB
:10455000A0E0B0E480839183A283B3838E01055AE7
:104560001F4FFE01E15AFF4F60817181828193816B
:1045700020E030E04AEF54E40E941F02DC01CB014E
:10458000F80180839183A283B383FE01E55AFF4F34
:10459000608171818281938120E030E040E85FE3B7
:1045A0000E942504882344F4FE01E75AFF4F81E06E
:1045B00090E09183808364C0FE01E55AFF4F6081E3
:1045C00071818281938120E03FEF4FE757E40E94A1
:1045D000C50318160CF043C0FE01E15AFF4F60817D
:1045E00071818281938120E030E040E251E40E94B9
:1045F0001F02DC01CB018E01075A1F4FBC01CD0108
:104600000E944900DC01CB01F801918380831FC027
:10461000FE01E95AFF4F88EC90E091838083FE0110
:10462000E95AFF4F808191810197F1F7FE01E95A24
:10463000FF4F91838083DE01A75ABF4FFE01E75AE7
:10464000FF4F80819181019711969C938E93FE017B
:10465000E75AFF4F808191810097D1F627C08E01E4
:10466000075A1F4FFE01E55AFF4F60817181828119
:1046700093810E944900DC01CB01F8019183808382
:10468000DE01AB5ABF4FFE01E75AFF4F8081918197
:104690008D939C93FE01EB5AFF4F8081918101978E
:1046A000F1F7FE01EB5AFF4F91838083FE01EF5833
:1046B000FF4F0190F081E02D8081FE01EF58FF4F08
:1046C0000190F081E02D9181692F41E00E94570E09
:1046D000FE01EF58FF4F0190F081E02D8081FE0137
:1046E000EF58FF4F0190F081E02D9481692F40E059
:1046F0000E94570EFE01EF58FF4F0190F081E02D10
:104700008081FE01EF58FF4F0190F081E02D9381F1
:10471000692F41E00E94570EFE01EF58FF4F0190B4
:10472000F081E02D8081FE01EF58FF4F0190F08174
:10473000E02D9281692F41E00E94570EFE01EF5A51
:10474000FF4F80E090E0A0E0B0E480839183A283FB
:10475000B3838E01035B1F4FFE01EF5AFF4F608151
:1047600071818281938120E030E04AEF54E40E941D
:104770001F02DC01CB01F80180839183A283B38304
:10478000FE01E35BFF4F608171818281938120E0B4
:1047900030E040E85FE30E942504882344F4FE01F2
:1047A000E55BFF4F81E090E09183808364C0FE0170
:1047B000E35BFF4F608171818281938120E03FEF55
:1047C0004FE757E40E94C50318160CF043C0FE01E2
:1047D000EF5AFF4F608171818281938120E030E048
:1047E00040E251E40E941F02DC01CB018E01055B17
:1047F0001F4FBC01CD010E944900DC01CB01F80133
:10480000918380831FC0FE01E75BFF4F88EC90E03F
:1048100091838083FE01E75BFF4F80819181019747
:10482000F1F7FE01E75BFF4F91838083DE01A55B1B
:10483000BF4FFE01E55BFF4F80819181019711968B
:104840009C938E93FE01E55BFF4F808191810097E1
:10485000D1F627C08E01055B1F4FFE01E35BFF4FC2
:1048600060817181828193810E944900DC01CB01CA
:10487000F80191838083DE01A95BBF4FFE01E55BF8
:10488000FF4F808191818D939C93FE01E95BFF4FE7
:10489000808191810197F1F7FE01E95BFF4F9183E0
:1048A0008083FE01EF58FF4F0190F081E02D808161
:1048B000FE01EF58FF4F0190F081E02D9181692FAB
:1048C00041E00E94570EFE01EF58FF4F0190F0812A
:1048D000E02D8081FE01EF58FF4F0190F081E02D27
:1048E0009481692F40E00E94570EFE01EF58FF4F60
:1048F0000190F081E02D8081FE01EF58FF4F019083
:10490000F081E02D9381692F40E00E94570EFE0157
:10491000EF58FF4F0190F081E02D8081FE01EF58AC
:10492000FF4F0190F081E02D9281692F41E00E94BC
:10493000570EFE01ED5BFF4F80E090E0A0E0B0E499
:1049400080839183A283B3838E01015C1F4FFE019C
:10495000ED5BFF4F608171818281938120E030E0C7
:104960004AEF54E40E941F02DC01CB01F80180836E
:104970009183A283B383FE01FF966081718182815E
:10498000938120E030E040E85FE30E942504882323
:104990002CF481E090E09EAF8DAF46C0FE01FF9603
:1049A000608171818281938120E03FEF4FE757E47E
:1049B0000E94C503181664F5FE01ED5BFF4F608190
:1049C00071818281938120E030E040E251E40E94D5
:1049D0001F02DC01CB01BC01CD010E944900DC01BA
:1049E000CB019EAF8DAF0FC088EC90E09CAF8BAF3A
:1049F0008BAD9CAD0197F1F79CAF8BAF8DAD9EADAC
:104A000001979EAF8DAF8DAD9EAD009769F716C033
:104A1000FE01FF9660817181828193810E9449002D
:104A2000DC01CB019EAF8DAF8DAD9EAD9AAF89AF4E
:104A300089AD9AAD0197F1F79AAF89AFFE01EF58B2
:104A4000FF4F0190F081E02D8081FE01EF58FF4F74
:104A50000190F081E02D9181692F41E00E94570E75
:104A6000FE01EF58FF4F0190F081E02D8081FE01A3
:104A7000EF58FF4F0190F081E02D9481692F41E0C4
:104A80000E94570EFE01EF58FF4F0190F081E02D7C
:104A90008081FE01EF58FF4F0190F081E02D93815E
:104AA000692F40E00E94570EFE01EF58FF4F019022
:104AB000F081E02D8081FE01EF58FF4F0190F081E1
:104AC000E02D9281692F41E00E94570E80E090E036
:104AD000A0E0B0E48DAB9EABAFABB8AF6DA97EA943
:104AE0008FA998AD20E030E04AEF54E40E941F0205
:104AF000DC01CB0189AB9AABABABBCAB69A97AA9A2
:104B00008BA99CA920E030E040E85FE30E942504E7
:104B100088232CF481E090E098AB8FA73FC069A96F
:104B20007AA98BA99CA920E03FEF4FE757E40E94A8
:104B3000C50318164CF56DA97EA98FA998AD20E084
:104B400030E040E251E40E941F02DC01CB01BC01D5
:104B5000CD010E944900DC01CB0198AB8FA70FC0AB
:104B600088EC90E09EA78DA78DA59EA50197F1F7F3
:104B70009EA78DA78FA598A9019798AB8FA78FA502
:104B800098A9009769F714C069A97AA98BA99CA96B
:104B90000E944900DC01CB0198AB8FA78FA598A993
:104BA0009CA78BA78BA59CA50197F1F79CA78BA72A
:104BB000FE01EF58FF4F0190F081E02D8081FE0152
:104BC000EF58FF4F0190F081E02D9181692F41E076
:104BD0000E94570EFE01EF58FF4F0190F081E02D2B
:104BE0008081FE01EF58FF4F0190F081E02D94810C
:104BF000692F41E00E94570EFE01EF58FF4F0190D0
:104C0000F081E02D8081FE01EF58FF4F0190F0818F
:104C1000E02D9381692F40E00E94570EFE01EF586E
:104C2000FF4F0190F081E02D8081FE01EF58FF4F92
:104C30000190F081E02D9281692F40E00E94570E93
:104C400080E090E0A0E0B0E48FA398A7A9A7BAA75E
:104C50006FA178A589A59AA520E030E04AEF54E439
:104C60000E941F02DC01CB018BA39CA3ADA3BEA3BA
:104C70006BA17CA18DA19EA120E030E040E85FE324
:104C80000E94250488232CF481E090E09AA389A354
:104C90003FC06BA17CA18DA19EA120E03FEF4FE71B
:104CA00057E40E94C50318164CF56FA178A589A595
:104CB0009AA520E030E040E251E40E941F02DC01AE
:104CC000CB01BC01CD010E944900DC01CB019AA3BC
:104CD00089A30FC088EC90E098A38F8F8F8D98A147
:104CE0000197F1F798A38F8F89A19AA101979AA3B1
:104CF00089A389A19AA1009769F714C06BA17CA12F
:104D00008DA19EA10E944900DC01CB019AA389A339
:104D100089A19AA19E8F8D8F8D8D9E8D0197F1F720
:104D20009E8F8D8FFE01EF58FF4F0190F081E02D97
:104D30008081FE01EF58FF4F0190F081E02D9181BD
:104D4000692F41E00E94570EFE01EF58FF4F01907E
:104D5000F081E02D8081FE01EF58FF4F0190F0813E
:104D6000E02D9281692F41E00E94570EFE01EF581D
:104D7000FF4F0190F081E02D8081FE01EF58FF4F41
:104D80000190F081E02D9381692F41E00E94570E40
:104D9000FE01EF58FF4F0190F081E02D8081FE0170
:104DA000EF58FF4F0190F081E02D9481692F40E092
:104DB0000E94570E80E090E0A0E0B0E4898F9A8FC7
:104DC000AB8FBC8F698D7A8D8B8D9C8D20E030E010
:104DD0004AEF54E40E941F02DC01CB018D8B9E8BB5
:104DE000AF8BB88F6D897E898F89988D20E030E0F8
:104DF00040E85FE30E94250488232CF481E090E0E2
:104E00009C8B8B8B3FC06D897E898F89988D20E02C
:104E10003FEF4FE757E40E94C50318164CF5698D24
:104E20007A8D8B8D9C8D20E030E040E251E40E9431
:104E30001F02DC01CB01BC01CD010E944900DC0155
:104E4000CB019C8B8B8B0FC088EC90E09A8B898B6D
:104E500089899A890197F1F79A8B898B8B899C892B
:104E600001979C8B8B8B8B899C89009769F714C069
:104E70006D897E898F89988D0E944900DC01CB0164
:104E80009C8B8B8B8B899C89988B8F878F8598893E
:104E90000197F1F7988B8F87FE01EF58FF4F019034
:104EA000F081E02D8081FE01EF58FF4F0190F081ED
:104EB000E02D9181692F40E00E94570EFE01EF58CE
:104EC000FF4F0190F081E02D8081FE01EF58FF4FF0
:104ED0000190F081E02D9281692F41E00E94570EF0
:104EE000FE01EF58FF4F0190F081E02D8081FE011F
:104EF000EF58FF4F0190F081E02D9381692F41E041
:104F00000E94570EFE01EF58FF4F0190F081E02DF7
:104F10008081FE01EF58FF4F0190F081E02D9481D8
:104F2000692F40E00E94570E80E090E0A0E0B0E4DE
:104F30008B879C87AD87BE876B857C858D859E859D
:104F400020E030E04AEF54E40E941F02DC01CB0174
:104F50008F839887A987BA876F81788589859A8595
:104F600020E030E040E85FE30E94250488232CF431
:104F700081E090E09E838D833FC06F817885898535
:104F80009A8520E03FEF4FE757E40E94C5031816CB
:104F90004CF56B857C858D859E8520E030E040E278
:104FA00051E40E941F02DC01CB01BC01CD010E9433
:104FB0004900DC01CB019E838D830FC088EC90E01B
:104FC0009C838B838B819C810197F1F79C838B83DE
:104FD0008D819E8101979E838D838D819E81009717
:104FE00069F714C06F81788589859A850E94490088
:104FF000DC01CB019E838D838D819E819A83898381
:1050000089819A810197F1F79A838983CE58DF4F7E
:105010000FB6F894DEBF0FBECDBFCF91DF911F91C9
:105020000F910895DF93CF9300D0CDB7DEB79A8369
:105030008983E981FA8181816FEF0E94FE0F80E010
:105040000F900F90CF91DF910895DF93CF93CDB75D
:10505000DEB761970FB6F894DEBF0FBECDBF8F8766
:10506000798B688BE889F98921818F85882F90E079
:10507000FC01E659FE4F9081822F692F0E94471054
:1050800080E090E0AAE7B4E48B879C87AD87BE8779
:105090006B857C858D859E8520E030E04AEF54E469
:1050A0000E941F02DC01CB018F839887A987BA87F2
:1050B0006F81788589859A8520E030E040E85FE35C
:1050C0000E94250488232CF481E090E09E838D8348
:1050D0003FC06F81788589859A8520E03FEF4FE753
:1050E00057E40E94C50318164CF56B857C858D85A9
:1050F0009E8520E030E040E251E40E941F02DC0186
:10510000CB01BC01CD010E944900DC01CB019E8393
:105110008D830FC088EC90E09C838B838B819C8176
:105120000197F1F79C838B838D819E8101979E83EC
:105130008D838D819E81009769F714C06F8178857A
:1051400089859A850E944900DC01CB019E838D836D
:105150008D819E819A83898389819A810197F1F754
:105160009A83898380E061960FB6F894DEBF0FBE04
:10517000CDBFCF91DF910895DF93CF93CDB7DEB749
:10518000A3970FB6F894DEBF0FBECDBF98A38F8F45
:1051900069A34AA399A18AA1981708F094C089A18C
:1051A0008E8F84C0EF8DF8A121818E8D992787FD88
:1051B0009095FC01E659FE4F9081822F692F0E9445
:1051C000471080E090E0AAE7B4E4898F9A8FAB8F14
:1051D000BC8F698D7A8D8B8D9C8D20E030E04AEFFD
:1051E00054E40E941F02DC01CB018D8B9E8BAF8BA0
:1051F000B88F6D897E898F89988D20E030E040E8F6
:105200005FE30E94250488232CF481E090E09C8BCE
:105210008B8B3FC06D897E898F89988D20E03FEF11
:105220004FE757E40E94C50318164CF5698D7A8D37
:105230008B8D9C8D20E030E040E251E40E941F0203
:10524000DC01CB01BC01CD010E944900DC01CB0196
:105250009C8B8B8B0FC088EC90E09A8B898B898913
:105260009A890197F1F79A8B898B8B899C89019791
:105270009C8B8B8B8B899C89009769F714C06D89F7
:105280007E898F89988D0E944900DC01CB019C8B1F
:105290008B8B8B899C89988B8F878F8598890197B9
:1052A000F1F7988B8F878E8D8F5F8E8F8E8D282F45
:1052B000332727FD30958AA1882F90E08217930726
:1052C0000CF070CF9CC099A18AA1891708F094C0F6
:1052D00089A18D8F84C0EF8DF8A121818D8D9927B3
:1052E00087FD9095FC01E659FE4F9081822F692F32
:1052F0000E94471080E090E0AAE7B4E48B879C8787
:10530000AD87BE876B857C858D859E8520E030E0EE
:105310004AEF54E40E941F02DC01CB018F8398877F
:10532000A987BA876F81788589859A8520E030E0E2
:1053300040E85FE30E94250488232CF481E090E09C
:105340009E838D833FC06F81788589859A8520E013
:105350003FEF4FE757E40E94C50318164CF56B85E5
:105360007C858D859E8520E030E040E251E40E94FE
:105370001F02DC01CB01BC01CD010E944900DC0110
:10538000CB019E838D830FC088EC90E09C838B8340
:105390008B819C810197F1F79C838B838D819E810A
:1053A00001979E838D838D819E81009769F714C03C
:1053B0006F81788589859A850E944900DC01CB013F
:1053C0009E838D838D819E819A83898389819A8131
:1053D0000197F1F79A8389838D8D81508D8F8D8D03
:1053E000282F332727FD30958AA1882F90E0281792
:1053F00039070CF070CF03C081E08BA301C01BA262
:105400008BA1A3960FB6F894DEBF0FBECDBFCF9190
:10541000DF910895DF93CF9300D00F92CDB7DEB721
:105420009A838983E981FA818281882359F4E98109
:10543000FA818081E981FA819181692F41E00E949E
:10544000570E13C0E981FA818281813059F4E981D4
:10545000FA818081E981FA819181692F40E00E947F
:10546000570E03C081E08B8301C01B828B810F909C
:105470000F900F90CF91DF910895DF93CF9300D0DD
:105480000F92CDB7DEB79A838983E981FA81828151
:10549000882359F4E981FA818081E981FA81918137
:1054A000692F40E00E94570E13C0E981FA81828182
:1054B000813059F4E981FA818081E981FA81918111
:1054C000692F41E00E94570E03C081E08B8301C029
:1054D0001B828B810F900F900F90CF91DF910895D9
:1054E000DF93CF93CDB7DEB7EA970FB6F894DEBF60
:1054F0000FBECDBF9AAF89AFE9ADFAAD8081E9ADFE
:10550000FAAD9181692F41E00E94440DE9ADFAADF9
:105510008281E9ADFAAD9381692F41E00E94440D8B
:10552000E9ADFAAD8481E9ADFAAD9581692F41E02D
:105530000E94440DE9ADFAAD86816FEF0E94FE0F27
:1055400080E090E0A0E2B2E48DAB9EABAFABB8AF31
:105550006DA97EA98FA998AD20E030E04AEF54E410
:105560000E941F02DC01CB0189AB9AABABABBCAB99
:1055700069A97AA98BA99CA920E030E040E85FE303
:105580000E94250488232CF481E090E098AB8FA73B
:105590003FC069A97AA98BA99CA920E03FEF4FE7FA
:1055A00057E40E94C50318164CF56DA97EA98FA972
:1055B00098AD20E030E040E251E40E941F02DC019F
:1055C000CB01BC01CD010E944900DC01CB0198ABAD
:1055D0008FA70FC088EC90E09EA78DA78DA59EA5F4
:1055E0000197F1F79EA78DA78FA598A9019798AB72
:1055F0008FA78FA598A9009769F714C069A97AA900
:105600008BA99CA90E944900DC01CB0198AB8FA714
:105610008FA598A99CA78BA78BA59CA50197F1F7AF
:105620009CA78BA729AD3AAD88E3B9010E945D2EF6
:1056300080E090E0A0E8BFE38FA398A7A9A7BAA74E
:105640006FA178A589A59AA520E030E04AEF54E43F
:105650000E941F02DC01CB018BA39CA3ADA3BEA3C0
:105660006BA17CA18DA19EA120E030E040E85FE32A
:105670000E94250488232CF481E090E09AA389A35A
:105680003FC06BA17CA18DA19EA120E03FEF4FE721
:1056900057E40E94C50318164CF56FA178A589A59B
:1056A0009AA520E030E040E251E40E941F02DC01B4
:1056B000CB01BC01CD010E944900DC01CB019AA3C2
:1056C00089A30FC088EC90E098A38F8F8F8D98A14D
:1056D0000197F1F798A38F8F89A19AA101979AA3B7
:1056E00089A389A19AA1009769F714C06BA17CA135
:1056F0008DA19EA10E944900DC01CB019AA389A340
:1057000089A19AA19E8F8D8F8D8D9E8D0197F1F726
:105710009E8F8D8F29AD3AAD8EE0B9010E945D2E2E
:1057200080E090E0A0E8BFE3898F9A8FAB8FBC8FB9
:10573000698D7A8D8B8D9C8D20E030E04AEF54E4AA
:105740000E941F02DC01CB018D8B9E8BAF8BB88F2B
:105750006D897E898F89988D20E030E040E85FE395
:105760000E94250488232CF481E090E09C8B8B8B95
:105770003FC06D897E898F89988D20E03FEF4FE78C
:1057800057E40E94C50318164CF5698D7A8D8B8DF0
:105790009C8D20E030E040E251E40E941F02DC01D9
:1057A000CB01BC01CD010E944900DC01CB019C8BE7
:1057B0008B8B0FC088EC90E09A8B898B89899A89B2
:1057C0000197F1F79A8B898B8B899C8901979C8B28
:1057D0008B8B8B899C89009769F714C06D897E89B2
:1057E0008F89988D0E944900DC01CB019C8B8B8BAB
:1057F0008B899C89988B8F878F8598890197F1F782
:10580000988B8F8729AD3AAD81E0B9010E945D2E5A
:1058100080E090E0A0E0B0E48B879C87AD87BE87F6
:105820006B857C858D859E8520E030E04AEF54E4D1
:105830000E941F02DC01CB018F839887A987BA875A
:105840006F81788589859A8520E030E040E85FE3C4
:105850000E94250488232CF481E090E09E838D83B0
:105860003FC06F81788589859A8520E03FEF4FE7BB
:1058700057E40E94C50318164CF56B857C858D8511
:105880009E8520E030E040E251E40E941F02DC01EE
:10589000CB01BC01CD010E944900DC01CB019E83FC
:1058A0008D830FC088EC90E09C838B838B819C81DF
:1058B0000197F1F79C838B838D819E8101979E8355
:1058C0008D838D819E81009769F714C06F817885E3
:1058D00089859A850E944900DC01CB019E838D83D6
:1058E0008D819E819A83898389819A810197F1F7BD
:1058F0009A838983EA960FB6F894DEBF0FBECDBFB8
:10590000CF91DF910895DF93CF9300D000D00F9215
:10591000CDB7DEB78A836B835D834C8319828A811E
:10592000882319F480E8898305C08A81813011F4C5
:1059300080EC89838B81803120F489819B81890F60
:1059400089832C813D818981B9010E945D2E0F9050
:105950000F900F900F900F90CF91DF910895DF93EC
:10596000CF9300D000D00F92CDB7DEB79B838A8350
:105970007D836C83198211C08981282F30E08A8150
:105980009B81FC01E20FF31F80812C813D81B901D5
:105990000E94852F89818F5F89838981282F30E03C
:1059A0008A819B81FC01E20FF31F8081882321F70C
:1059B0000F900F900F900F900F90CF91DF9108955F
:1059C000DF93CF93CDB7DEB769970FB6F894DEBFFC
:1059D0000FBECDBF9F8B8E8B798F688F1E821B82EF
:1059E0008E899F899A83898389819A8199233CF43E
:1059F0008E899F89909581959F4F9F8B8E8B8E81ED
:105A0000E82FF0E08E899F892AE030E0B9010E94FA
:105A10008034282F205DCE010796E80FF91F2083E0
:105A20008E818F5F8E838E899F892AE030E0B90155
:105A30000E948034CB019F8B8E8B8E899F89181694
:105A40001906ECF289819A8199236CF48E81282FB2
:105A500030E0CE010796FC01E20FF31F8DE2808358
:105A60008E818F5F8E838E818B838B8181508D831E
:105A70001E822CC08E81282F30E0CE010796FC01BB
:105A8000E20FF31F80818C838E81482F50E08D813F
:105A9000282F30E0CE010796FC01E20FF31F208192
:105AA000CE010796FC01E40FF51F20838D81282F7E
:105AB00030E0CE010796FC01E20FF31F8C8180835A
:105AC0008E818F5F8E838D8181508D839E818D81AC
:105AD000981780F21E8211C08E81282F30E0CE01EF
