:100000000C942A000C9447000C9447000C94470071
:100010000C9447000C9447000C9447000C94470044
:100020000C9447000C9447000C9447000C94470034
:100030000C9447000C9447000C9447000C94470024
:100040000C9447000C9447000C9447000C94470014
:100050000C94470011241FBECFE5D8E0DEBFCDBF12
:1000600011E0A0E6B0E0E2EDF4E302C005900D92ED
:10007000AE39B107D9F712E0AEE9B1E001C01D9287
:10008000A23CB107E1F70E94D4190C94671A0C94B2
:100090000000EF92FF920F931F937B018C0120E0F1
:1000A00030E040E05FE40E94250488238CF0C80122
:1000B000B70120E030E040E05FE40E94C1010E940F
:1000C000E3049B01AC01205030404040504806C042
:1000D000C801B7010E94E3049B01AC01B901CA0148
:1000E0001F910F91FF90EF900895A0E0B0E0EBE733
:1000F000F0E00C94301ADC012B01FA019C91923053
:1001000008F439C1EB018881823008F433C194309E
:1001100069F4843009F02FC111969C91119789815F
:10012000981709F428C1ADE6B0E025C1843009F480
:1001300021C18230A9F4923009F01DC19A01AD01AC
:1001400088E0EA010990AE01E90109929E0181501F
:10015000C1F7E201898111969C918923818308C1AD
:10016000923009F407C112962D903C901397EB0141
:100170008A819B811496AD90BD90CD90DC901797AD
:10018000EC80FD800E811F819101281B390BB90184
:1001900037FF04C066277727621B730B6032710537
:1001A0000CF061C0121613066CF537014801062EDB
:1001B00004C096948794779467940A94D2F721E0C8
:1001C00030E040E050E004C0220F331F441F551FB1
:1001D0006A95D2F721503040404050402E213F21B7
:1001E00040235123211531054105510521F021E01E
:1001F00030E040E050E079018A01E628F72808293C
:1002000019293CC0232BD1F1260E371E350146019A
:10021000062E04C096948794779467940A94D2F734
:1002200021E030E040E050E004C0220F331F441FC3
:10023000551F6A95D2F721503040404050402A2146
:100240003B214C215D21211531054105510521F04E
:1002500021E030E040E050E059016A01A628B728CB
:10026000C828D9280BC0821593052CF01C01AA249C
:10027000BB24650103C0EE24FF24870111969C91E5
:10028000D20111968C91981709F445C0992339F041
:10029000A80197012A193B094C095D0906C0A6016E
:1002A00095012E193F09400B510B57FD08C01182D3
:1002B0003382228224833583468357831DC081E0A5
:1002C00081833382228288279927DC01821B930B4A
:1002D000A40BB50B84839583A683B7830DC0220F2F
:1002E000331F441F551F24833583468357838281E0
:1002F000938101979383828324813581468157813D
:10030000DA01C9010197A109B1098F5F9F4FAF4F72
:10031000BF4328F30BC0918333822282EA0CFB1C7B
:100320000C1D1D1DE482F5820683178383E0808304
:10033000248135814681578157FF1AC0C901AA27F8
:1003400097FDA095BA2F81709070A070B0705695EF
:10035000479537952795822B932BA42BB52B848318
:100360009583A683B7838281938101969383828349
:10037000DF0101C0D201CD01CDB7DEB7E2E10C94BF
:100380004C1AA0E2B0E0E7ECF1E00C943C1A69836F
:100390007A838B839C832D833E834F835887E9E048
:1003A000EE2EF12CEC0EFD1ECE010196B7010E943F
:1003B0005B068E010F5E1F4FCE010596B8010E94AD
:1003C0005B068A8991E089278A8BC701B801AE0153
:1003D000475E5F4F0E9475000E948605A096E6E08A
:1003E0000C94581AA0E2B0E0E8EFF1E00C943C1A4B
:1003F00069837A838B839C832D833E834F835887C5
:10040000F9E0EF2EF12CEC0EFD1ECE010196B701A6
:100410000E945B068E010F5E1F4FCE010596B8014C
:100420000E945B06C701B801AE01475E5F4F0E94A4
:1004300075000E948605A096E6E00C94581AA0E28A
:10044000B0E0E5E2F2E00C94301A69837A838B83A2
:100450009C832D833E834F835887CE010196BE0136
:10046000675F7F4F0E945B06CE010596BE016F5EFF
:100470007F4F0E945B069985923088F0898982308F
:10048000C8F0943019F4823051F404C0843029F457
:10049000923081F48DE690E0C6C0923049F420E0BD
:1004A0009A858A89981321E02A87CE010996BBC0D4
:1004B000823049F420E09A858A89981321E02A8BBA
:1004C000CE014196B0C02D843E844F8458886D88FB
:1004D0007E888F88988CEE24FF248701AA24BB2471
:1004E000650140E050E060E070E0E0E0F0E0C10174
:1004F00081709070892BE9F0E60CF71C081D191D1E
:100500009A01AB012A0D3B1D4C1D5D1D80E090E062
:10051000A0E0B0E0E614F7040805190520F481E036
:1005200090E0A0E0B0E0BA01A901480F591F6A1F8E
:100530007B1FAA0CBB1CCC1CDD1C97FE08C081E0F5
:1005400090E0A0E0B0E0A82AB92ACA2ADB2A3196B6
:10055000E032F10549F0660C771C881C991C569412
:10056000479437942794C3CFFA85EA892B893C892D
:100570008B859C85280F391F2E5F3F4F17C0CA01FE
:1005800081709070892B61F016950795F794E79428
:1005900080E090E0A0E0B0E8E82AF92A0A2B1B2BC3
:1005A00076956795579547952F5F3F4F77FDE7CF36
:1005B0000CC0440F551F661F771F17FD4160EE0CDE
:1005C000FF1C001F111F21503040403090E05907A0
:1005D00090E0690790E4790760F32B8F3C8FDB0193
:1005E000CA018F779070A070B07080349105A1051A
:1005F000B10561F447FD0AC0E114F10401051105DC
:1006000029F0405C5F4F6F4F7F4F40781A8EFE1786
:1006100011F081E08A8F4D8F5E8F6F8F78A383E01A
:10062000898FCE0149960E948605A096E2E10C943E
:100630004C1AA8E1B0E0EFE1F3E00C94381A6983BA
:100640007A838B839C832D833E834F835887B9E0C5
:10065000EB2EF12CEC0EFD1ECE010196B7010E948F
:100660005B068E010F5E1F4FCE010596B8010E94FA
:100670005B062985223008F47EC03989323010F4B7
:10068000B8017CC08A859A8989278A87243011F02D
:10069000223031F4231709F06EC06DE670E06EC0B1
:1006A000343039F41D861E861F86188A1C861B86E8
:1006B00004C0323021F484E08987B7015FC02B8504
:1006C0003C858B899C89281B390B3C872B87ED84C3
:1006D000FE840F851889AD88BE88CF88D88CEA142F
:1006E000FB040C051D0540F4EE0CFF1C001F111F40
:1006F000215030403C872B8720E030E040E050E044
:1007000080E090E0A0E0B0E460E070E0EA14FB0478
:100710000C051D0540F0282B392B4A2B5B2BEA18C2
:10072000FB080C091D09B695A79597958795EE0CC2
:10073000FF1C001F111F6F5F7F4F6F31710531F775
:10074000DA01C9018F779070A070B0708034910584
:10075000A105B10561F427FD0AC0E114F10401050A
:10076000110529F0205C3F4F4F4F5F4F20782D87B8
:100770003E874F87588BBE01675F7F4FCB010E943A
:1007800086056896EAE00C94541AA8E1B0E0EBEC18
:10079000F3E00C943C1A69837A838B839C832D83CA
:1007A0003E834F83588789E0E82EF12CEC0EFD1E26
:1007B000CE010196B7010E945B068E010F5E1F4FAE
:1007C000CE010596B8010E945B068985823040F013
:1007D0008989823028F0C701B8010E94D30601C080
:1007E00081E06896E6E00C94581AA8E1B0E0EBEFDF
:1007F000F3E00C943C1A69837A838B839C832D836A
:100800003E834F83588789E0E82EF12CEC0EFD1EC5
:10081000CE010196B7010E945B068E010F5E1F4F4D
:10082000CE010596B8010E945B068985823040F0B2
:100830008989823028F0C701B8010E94D30601C01F
:100840008FEF6896E6E00C94581AA8E1B0E0EBE26E
:10085000F4E00C943C1A69837A838B839C832D8308
:100860003E834F83588789E0E82EF12CEC0EFD1E65
:10087000CE010196B7010E945B068E010F5E1F4FED
:10088000CE010596B8010E945B068985823040F052
:100890008989823028F0C701B8010E94D30601C0BF
:1008A0008FEF6896E6E00C94581AA8E1B0E0EBE50B
:1008B000F4E00C943C1A69837A838B839C832D83A8
:1008C0003E834F83588789E0E82EF12CEC0EFD1E05
:1008D000CE010196B7010E945B068E010F5E1F4F8D
:1008E000CE010596B8010E945B068985823040F0F2
:1008F0008989823028F0C701B8010E94D30601C05F
:1009000081E06896E6E00C94581AA8E0B0E0EBE8C5
:10091000F4E00C94391A9B01AC0183E08983DA017D
:10092000C9018827B7FD83959927AA27BB27B82E29
:10093000211531054105510519F482E089833AC03A
:100940008823A9F0203080E0380780E0480780E85D
:10095000580729F460E070E080E09FEC30C0EE249E
:10096000FF248701E21AF30A040B150B02C0790178
:100970008A018EE1C82ED12CDC82CB82ED82FE82F0
:100980000F831887C801B7010E9437050197181611
:10099000190684F4082E04C0EE0CFF1C001F111F62
:1009A0000A94D2F7ED82FE820F831887C81AD90AFB
:1009B000DC82CB82BA82CE0101960E9486052896FF
:1009C000E9E00C94551AACE0B0E0E9EEF4E00C94E8
:1009D000401A69837A838B839C83CE010196BE0182
:1009E0006B5F7F4F0E945B068D81823061F18230A8
:1009F00050F1843021F48E81882351F12EC02F8153
:100A0000388537FD20C06E812F3131051CF06623FB
:100A1000F9F023C08EE190E0821B930B29853A8583
:100A20004B855C8504C056954795379527958A95E3
:100A3000D2F76623B1F050954095309521953F4F00
:100A40004F4F5F4F0EC020E030E040E050E009C063
:100A50002FEF3FEF4FEF5FE704C020E030E040E0D2
:100A600050E8B901CA012C96E2E00C945C1AEF92AE
:100A7000FF920F931F937B018C0180E0E81680E0CA
:100A8000F80681E0080780E0180788F48FEFE81681
:100A9000F1040105110531F028F088E090E0A0E0B4
:100AA000B0E017C080E090E0A0E0B0E012C080E0CD
:100AB000E81680E0F80680E0080781E0180728F0D3
:100AC00088E190E0A0E0B0E004C080E190E0A0E028
:100AD000B0E020E230E040E050E0281B390B4A0B48
:100AE0005B0B04C016950795F794E7948A95D2F7A7
:100AF000F701EB58FF4F8081281B3109410951094B
:100B0000C9011F910F91FF90EF900895DF92EF922E
:100B1000FF920F931F93FC01E480F58006811781FB
:100B2000D1808081823048F480E090E0A0E1B0E0A4
:100B3000E82AF92A0A2B1B2BA5C0843009F49FC090
:100B4000823021F4EE24FF24870105C0E114F10472
:100B50000105110519F4E0E0F0E096C062817381AF
:100B60009FEF623879070CF05BC022E83FEF261B4D
:100B7000370B2A3131052CF020E030E040E050E026
:100B80002AC0B801A701022E04C076956795579533
:100B900047950A94D2F781E090E0A0E0B0E004C06D
:100BA000880F991FAA1FBB1F2A95D2F70197A10989
:100BB000B1098E219F21A023B1230097A105B10582
:100BC00021F081E090E0A0E0B0E09A01AB01282B99
:100BD000392B4A2B5B2BDA01C9018F779070A070FB
:100BE000B07080349105A105B10539F427FF09C023
:100BF000205C3F4F4F4F5F4F04C0215C3F4F4F4F32
:100C00005F4FE0E0F0E02030A0E03A07A0E04A07C4
:100C1000A0E45A0710F0E1E0F0E079018A0127C072
:100C20006038710564F5FB01E158FF4FD801C70139
:100C30008F779070A070B07080349105A105B105D8
:100C400039F4E7FE0DC080E490E0A0E0B0E004C01D
:100C50008FE390E0A0E0B0E0E80EF91E0A1F1B1F32
:100C600017FF05C016950795F794E794319687E02E
:100C700016950795F794E7948A95D1F705C0EE2469
:100C8000FF248701EFEFF0E06E2F679566276795E9
:100C9000902F9F77D794DD24D7948E2F8695492F58
:100CA000462B582F5D29B701CA011F910F91FF9064
:100CB000EF90DF900895FC01DB014081518122819A
:100CC000622F6F7770E0221F2227221F9381892FC6
:100CD000880F822B282F30E0991F9927991F119692
:100CE0009C93119721153105A9F541155105610511
:100CF000710511F482E037C082E89FEF13969C9350
:100D00008E9312979A01AB0167E0220F331F441FA5
:100D1000551F6A95D1F783E08C930DC0220F331FC6
:100D2000441F551F12968D919C911397019713960E
:100D30009C938E931297203080E0380780E048071C
:100D400080E4580758F314962D933D934D935C938C
:100D5000179708952F3F310579F441155105610525
:100D6000710519F484E08C93089564FF03C081E059
:100D70008C9312C01C9210C02F57304013963C9396
:100D80002E93129783E08C9387E0440F551F661FC4
:100D9000771F8A95D1F7706414964D935D936D9388
:100DA0007C93179708951F93DC01FB019C9192306F
:100DB00008F447C08081823008F443C0943051F475
:100DC00011961C91843099F58181682F70E0611B28
:100DD00071093FC0843021F0923031F48230B9F192
:100DE0008181882389F12DC011961C911197823041
:100DF000F1F081811817D9F412962D913C91139737
:100E0000828193818217930794F028173907BCF0E9
:100E100014968D919D910D90BC91A02D24813581CA
:100E200046815781281739074A075B0718F41123B1
:100E300041F00AC082179307A407B50740F41123B5
:100E400019F061E070E005C06FEF7FEF02C060E075
:100E500070E0CB011F910895DF93CF93CDB7DEB73C
:100E600028970FB6F894DEBF0FBECDBF89836A8383
:100E70004B838A81883008F0F6C08B81882309F083
:100E800077C08981282F30E038872F838F8198851C
:100E90008130910559F12F813885223031052CF4AC
:100EA0008F819885009769F060C02F813885223046
:100EB000310589F18F8198858330910509F440C00F
:100EC00054C0AAE3B0E0EAE3F0E08081482F8A81D1
:100ED000282F30E081E090E0022E02C0880F991F99
:100EE0000A94E2F7809584238C93BBC0A7E3B0E01B
:100EF000E7E3F0E08081482F8A81282F30E081E00D
:100F000090E0022E02C0880F991F0A94E2F78095A4
:100F100084238C93A6C0A4E3B0E0E4E3F0E08081F6
:100F2000482F8A81282F30E081E090E0022E02C015
:100F3000880F991F0A94E2F7809584238C9391C0BF
:100F4000A1E3B0E0E1E3F0E08081482F8A81282F1F
:100F500030E081E090E0022E02C0880F991F0A94D1
:100F6000E2F7809584238C937CC091E09E837DC0C2
:100F70008B81813009F072C08981282F30E03D8358
:100F80002C838C819D818130910549F12C813D819B
:100F9000223031052CF48C819D81009761F05BC07B
:100FA0002C813D812230310571F18C819D8183300E
:100FB0009105E9F150C0AAE3B0E0EAE3F0E08081F6
:100FC000482F8A81282F30E081E090E0022E02C075
:100FD000880F991F0A94E2F7842B8C9342C0A7E3F1
:100FE000B0E0E7E3F0E08081482F8A81282F30E0ED
:100FF00081E090E0022E02C0880F991F0A94E2F768
:10100000842B8C932EC0A4E3B0E0E4E3F0E0808175
:10101000482F8A81282F30E081E090E0022E02C024
:10102000880F991F0A94E2F7842B8C931AC0A1E3CE
:10103000B0E0E1E3F0E08081482F8A81282F30E0A2
:1010400081E090E0022E02C0880F991F0A94E2F717
:10105000842B8C9306C091E09E8307C023E02E83EF
:1010600004C01E8202C032E03E838E8128960FB6F5
:10107000F894DEBF0FBECDBFCF91DF910895DF930F
:10108000CF93CDB7DEB728970FB6F894DEBF0FBE6B
:10109000CDBF89836A834B838A81883008F0F6C08C
:1010A0008B81882309F077C08981282F30E0388729
:1010B0002F838F8198858130910559F12F81388553
:1010C000223031052CF48F819885009769F060C03B
:1010D0002F8138852230310589F18F8198858330C1
:1010E000910509F440C054C0ABE3B0E0EBE3F0E09D
:1010F0008081482F8A81282F30E081E090E0022E05
:1011000002C0880F991F0A94E2F7809584238C937C
:10111000BBC0A8E3B0E0E8E3F0E08081482F8A811B
:10112000282F30E081E090E0022E02C0880F991F46
:101130000A94E2F7809584238C93A6C0A5E3B0E0DF
:10114000E5E3F0E08081482F8A81282F30E081E0BC
:1011500090E0022E02C0880F991F0A94E2F7809552
:1011600084238C9391C0A2E3B0E0E2E3F0E08081BD
:10117000482F8A81282F30E081E090E0022E02C0C3
:10118000880F991F0A94E2F7809584238C937CC082
:1011900091E09E837DC08B81813009F072C089818E
:1011A000282F30E03D832C838C819D8181309105F7
:1011B00049F12C813D81223031052CF48C819D81B7
:1011C000009761F05BC02C813D812230310571F1C7
:1011D0008C819D8183309105E9F150C0ABE3B0E093
:1011E000EBE3F0E08081482F8A81282F30E081E016
:1011F00090E0022E02C0880F991F0A94E2F7842B18
:101200008C9342C0A8E3B0E0E8E3F0E08081482F8F
:101210008A81282F30E081E090E0022E02C0880F02
:10122000991F0A94E2F7842B8C932EC0A5E3B0E0BB
:10123000E5E3F0E08081482F8A81282F30E081E0CB
:1012400090E0022E02C0880F991F0A94E2F7842BC7
:101250008C931AC0A2E3B0E0E2E3F0E08081482F73
:101260008A81282F30E081E090E0022E02C0880FB2
:10127000991F0A94E2F7842B8C9306C091E09E8319
:1012800007C023E02E8304C01E8202C032E03E83EA
:101290008E8128960FB6F894DEBF0FBECDBFCF91DA
:1012A000DF910895DF93CF93CDB7DEB727970FB6C1
:1012B000F894DEBF0FBECDBF89836A835C834B8306
:1012C0008A81883008F076C08981282F30E03F83FA
:1012D0002E834E815F814130510559F18E819F816E
:1012E0008230910534F42E813F812115310569F05A
:1012F0005CC04E815F814230510579F18E819F81C2
:101300008330910509F43DC050C0E9E3F0E08081ED
:10131000282F30E08A81882F90E0A90102C05595DE
:1013200047958A95E2F7CA018170EB81FC81808341
:101330003FC0E6E3F0E08081282F30E08A81882FEB
:1013400090E0A90102C0559547958A95E2F7CA0138
:101350008170EB81FC8180832BC0E3E3F0E080812E
:10136000282F30E08A81882F90E0A90102C055958E
:1013700047958A95E2F7CA018170EB81FC818083F1
:1013800017C0E0E3F0E08081282F30E08A81882FC9
:1013900090E0A90102C0559547958A95E2F7CA01E8
:1013A0008170EB81FC81808303C051E05D8304C0C8
:1013B0001D8202C082E08D838D8127960FB6F8943E
:1013C000DEBF0FBECDBFCF91DF910895DF93CF93E6
:1013D00000D000D00F92CDB7DEB789836A838981B0
:1013E000282F30E03D832C838C819D8181309105B5
:1013F000D1F02C813D81223031052CF48C819D81EE
:10140000009761F01FC02C813D812230310581F0B1
:101410008C819D818330910581F014C0EAE3F0E076
:101420008A81808312C0E7E3F0E08A8180830DC067
:10143000E4E3F0E08A81808308C0E1E3F0E08A81A0
:10144000808303C091E09B8301C01B828B810F903E
:101450000F900F900F900F90CF91DF910895DF9331
:10146000CF9300D000D00F92CDB7DEB789836A83C7
:101470008981282F30E03D832C838C819D818130B0
:101480009105D1F02C813D81223031052CF48C81E5
:101490009D81009761F01FC02C813D812230310574
:1014A00081F08C819D818330910581F014C0EBE344
:1014B000F0E08A81808312C0E8E3F0E08A818083D3
:1014C0000DC0E5E3F0E08A81808308C0E2E3F0E04C
:1014D0008A81808303C091E09B8301C01B828B8142
:1014E0000F900F900F900F900F90CF91DF91089574
:1014F000DF93CF9300D000D000D0CDB7DEB7898383
:101500007B836A838A819B81009709F440C089812B
:10151000282F30E03E832D838D819E81813091057F
:10152000E1F02D813E81223031052CF48D819E81A8
:10153000009761F027C02D813E8122303105A1F056
:101540008D819E8183309105B1F01CC0E9E3F0E00C
:101550008081EA81FB81808318C0E6E3F0E080812E
:10156000EA81FB81808311C0E3E3F0E08081EA81BE
:10157000FB8180830AC0E0E3F0E08081EA81FB81A7
:10158000808303C091E09C8304C01C8202C025E0DC
:101590002C838C8126960FB6F894DEBF0FBECDBF8C
:1015A000CF91DF910895DF93CF9300D000D00F92B9
:1015B000CDB7DEB79A838983E981FA818081E98199
:1015C000FA819181692F40E00E942C07E981FA811C
:1015D0008281882309F07DC0E981FA818081282FEA
:1015E00030E03D832C838C819D818130910561F1B8
:1015F0002C813D81223031052CF48C819D81009716
:1016000069F064C02C813D812230310599F18C81D3
:101610009D818330910509F443C058C0ABE3B0E02D
:10162000EBE3F0E08081482FE981FA818181282F66
:1016300030E081E090E0022E02C0880F991F0A94EA
:10164000E2F7842B8C9345C0A8E3B0E0E8E3F0E038
:101650008081482FE981FA818181282F30E081E063
:1016600090E0022E02C0880F991F0A94E2F7842BA3
:101670008C932FC0A5E3B0E0E5E3F0E08081482F34
:10168000E981FA818181282F30E081E090E0022E0B
:1016900002C0880F991F0A94E2F7842B8C9319C01B
:1016A000A2E3B0E0E2E3F0E08081482FE981FA8133
:1016B0008181282F30E081E090E0022E02C0880F67
:1016C000991F0A94E2F7842B8C9303C091E09B83CB
:1016D00001C01B828B810F900F900F900F900F9085
:1016E000CF91DF910895DF93CF9300D000D0CDB795
:1016F000DEB79A8389837C836B83E981FA81808159
:10170000E981FA8191812B813C81692FA9010E9495
:10171000520980E00F900F900F900F90CF91DF91C2
:101720000895DF93CF9300D0CDB7DEB79A83898336
:10173000E981FA8181816FEF0E94E60980E00F90D4
:101740000F90CF91DF910895DF93CF93CDB7DEB7A0
:1017500061970FB6F894DEBF0FBECDBF8F87798B30
:10176000688BE889F98921818F85882F90E0FC01B9
:10177000EB58FE4F9081822F692F0E942F0A80E044
:1017800090E0AAE7B4E48B879C87AD87BE876B8522
:101790007C858D859E8520E030E04AEF54E40E94F0
:1017A0001F02DC01CB018F839887A987BA876F81DD
:1017B000788589859A8520E030E040E85FE30E94E3
:1017C000550488232CF481E090E09E838D833FC0F4
:1017D0006F81788589859A8520E03FEF4FE757E450
:1017E0000E94F50318164CF56B857C858D859E85CA
:1017F00020E030E040E251E40E941F02DC01CB0116
:10180000BC01CD010E944900DC01CB019E838D8388
:101810000FC088EC90E09C838B838B819C81019727
:10182000F1F79C838B838D819E8101979E838D83AD
:101830008D819E81009769F714C06F8178858985B5
:101840009A850E944900DC01CB019E838D838D81A6
:101850009E819A83898389819A810197F1F79A837E
:10186000898380E061960FB6F894DEBF0FBECDBFCE
:10187000CF91DF910895DF93CF93CDB7DEB7A397D4
:101880000FB6F894DEBF0FBECDBF98A38F8F69A3AC
:101890004AA399A18AA1981708F094C089A18E8FB4
:1018A00084C0EF8DF8A121818E8D992787FD9095B9
:1018B000FC01EB58FE4F9081822F692F0E942F0A66
:1018C00080E090E0AAE7B4E4898F9A8FAB8FBC8F59
:1018D000698D7A8D8B8D9C8D20E030E04AEF54E449
:1018E0000E941F02DC01CB018D8B9E8BAF8BB88FCA
:1018F0006D897E898F89988D20E030E040E85FE334
:101900000E94550488232CF481E090E09C8B8B8B03
:101910003FC06D897E898F89988D20E03FEF4FE72A
:1019200057E40E94F50318164CF5698D7A8D8B8D5E
:101930009C8D20E030E040E251E40E941F02DC0177
:10194000CB01BC01CD010E944900DC01CB019C8B85
:101950008B8B0FC088EC90E09A8B898B89899A8950
:101960000197F1F79A8B898B8B899C8901979C8BC6
:101970008B8B8B899C89009769F714C06D897E8950
:101980008F89988D0E944900DC01CB019C8B8B8B49
:101990008B899C89988B8F878F8598890197F1F720
:1019A000988B8F878E8D8F5F8E8F8E8D282F33270C
:1019B00027FD30958AA1882F90E0821793070CF0BD
:1019C00070CF9CC099A18AA1891708F094C089A101
:1019D0008D8F84C0EF8DF8A121818D8D992787FD92
:1019E0009095FC01EB58FE4F9081822F692F0E9449
:1019F0002F0A80E090E0AAE7B4E48B879C87AD874C
:101A0000BE876B857C858D859E8520E030E04AEF22
:101A100054E40E941F02DC01CB018F839887A987C1
:101A2000BA876F81788589859A8520E030E040E823
:101A30005FE30E94550488232CF481E090E09E83AC
:101A40008D833FC06F81788589859A8520E03FEF3F
:101A50004FE757E40E94F50318164CF56B857C851B
:101A60008D859E8520E030E040E251E40E941F0217
:101A7000DC01CB01BC01CD010E944900DC01CB019E
:101A80009E838D830FC088EC90E09C838B838B8139
:101A90009C810197F1F79C838B838D819E810197B7
:101AA0009E838D838D819E81009769F714C06F811D
:101AB000788589859A850E944900DC01CB019E8347
:101AC0008D838D819E819A83898389819A810197F3
:101AD000F1F79A8389838D8D81508D8F8D8D282F7D
:101AE000332727FD30958AA1882F90E028173907E2
:101AF0000CF070CF03C081E08BA301C01BA28BA1AF
:101B0000A3960FB6F894DEBF0FBECDBFCF91DF9185
:101B10000895DF93CF9300D00F92CDB7DEB79A83AD
:101B20008983E981FA818281882359F4E981FA81E4
:101B30008081E981FA819181692F41E00E943F080B
:101B400013C0E981FA818281813059F4E981FA81F7
:101B50008081E981FA819181692F40E00E943F08EC
:101B600003C081E08B8301C01B828B810F900F909B
:101B70000F90CF91DF910895DF93CF9300D00F9214
:101B8000CDB7DEB79A838983E981FA818281882380
:101B900059F4E981FA818081E981FA819181692F83
:101BA00040E00E943F0813C0E981FA8182818130C0
:101BB00059F4E981FA818081E981FA819181692F63
:101BC00041E00E943F0803C081E08B8301C01B827B
:101BD0008B810F900F900F90CF91DF910895DF933D
:101BE000CF93CDB7DEB7EA970FB6F894DEBF0FBE3E
:101BF000CDBF9AAF89AFE9ADFAAD8081E9ADFAAD5D
:101C00009181692F41E00E942C07E9ADFAAD8281F4
:101C1000E9ADFAAD9381692F41E00E942C07E9AD4F
:101C2000FAAD8481E9ADFAAD9581692F41E00E945A
:101C30002C07E9ADFAAD86816FEF0E94E60980E0DE
:101C400090E0A0E2B2E48DAB9EABAFABB8AF6DA9B4
:101C50007EA98FA998AD20E030E04AEF54E40E94BD
:101C60001F02DC01CB0189AB9AABABABBCAB69A962
:101C70007AA98BA99CA920E030E040E85FE30E94AC
:101C8000550488232CF481E090E098AB8FA73FC0E7
:101C900069A97AA98BA99CA920E03FEF4FE757E4F7
:101CA0000E94F50318164CF56DA97EA98FA998AD71
:101CB00020E030E040E251E40E941F02DC01CB0151
:101CC000BC01CD010E944900DC01CB0198AB8FA77C
:101CD0000FC088EC90E09EA78DA78DA59EA50197CB
:101CE000F1F79EA78DA78FA598A9019798AB8FA70D
:101CF0008FA598A9009769F714C069A97AA98BA93B
:101D00009CA90E944900DC01CB0198AB8FA78FA54D
:101D100098A99CA78BA78BA59CA50197F1F79CA7D9
:101D20008BA729AD3AAD88E3B9010E94DC1180E0B0
:101D300090E0A0E8BFE38FA398A7A9A7BAA76FA1D7
:101D400078A589A59AA520E030E04AEF54E40E94E6
:101D50001F02DC01CB018BA39CA3ADA3BEA36BA18F
:101D60007CA18DA19EA120E030E040E85FE30E94CD
:101D7000550488232CF481E090E09AA389A33FC006
:101D80006BA17CA18DA19EA120E03FEF4FE757E41E
:101D90000E94F50318164CF56FA178A589A59AA5A0
:101DA00020E030E040E251E40E941F02DC01CB0160
:101DB000BC01CD010E944900DC01CB019AA389A39B
:101DC0000FC088EC90E098A38F8F8F8D98A101971A
:101DD000F1F798A38F8F89A19AA101979AA389A35C
:101DE00089A19AA1009769F714C06BA17CA18DA16C
:101DF0009EA10E944900DC01CB019AA389A389A17D
:101E00009AA19E8F8D8F8D8D9E8D0197F1F79E8F5C
:101E10008D8F29AD3AAD8EE0B9010E94DC1180E0D2
:101E200090E0A0E8BFE3898F9A8FAB8FBC8F698D5C
:101E30007A8D8B8D9C8D20E030E04AEF54E40E9437
:101E40001F02DC01CB018D8B9E8BAF8BB88F6D8910
:101E50007E898F89988D20E030E040E85FE30E9422
:101E6000550488232CF481E090E09C8B8B8B3FC041
:101E70006D897E898F89988D20E03FEF4FE757E489
:101E80000E94F50318164CF5698D7A8D8B8D9C8D0B
:101E900020E030E040E251E40E941F02DC01CB016F
:101EA000BC01CD010E944900DC01CB019C8B8B8BD6
:101EB0000FC088EC90E09A8B898B89899A89019769
:101EC000F1F79A8B898B8B899C8901979C8B8B8BE3
:101ED0008B899C89009769F714C06D897E898F89E9
:101EE000988D0E944900DC01CB019C8B8B8B8B89E8
:101EF0009C89988B8F878F8598890197F1F7988BAC
:101F00008F8729AD3AAD81E0B9010E94DC1180E0F4
:101F100090E0A0E0B0E48B879C87AD87BE876B859F
:101F20007C858D859E8520E030E04AEF54E40E9458
:101F30001F02DC01CB018F839887A987BA876F8145
:101F4000788589859A8520E030E040E85FE30E944B
:101F5000550488232CF481E090E09E838D833FC05C
:101F60006F81788589859A8520E03FEF4FE757E4B8
:101F70000E94F50318164CF56B857C858D859E8532
:101F800020E030E040E251E40E941F02DC01CB017E
:101F9000BC01CD010E944900DC01CB019E838D83F1
:101FA0000FC088EC90E09C838B838B819C81019790
:101FB000F1F79C838B838D819E8101979E838D8316
:101FC0008D819E81009769F714C06F81788589851E
:101FD0009A850E944900DC01CB019E838D838D810F
:101FE0009E819A83898389819A810197F1F79A83E7
:101FF0008983EA960FB6F894DEBF0FBECDBFCF91AE
:10200000DF910895DF93CF9300D000D00F92CDB72A
:10201000DEB78A836B835D834C8319828A81882330
:1020200019F480E8898305C08A81813011F480EC3D
:1020300089838B81803120F489819B81890F8983F9
:102040002C813D818981B9010E94DC110F900F9094
:102050000F900F900F90CF91DF910895DF93CF9362
:1020600000D000D00F92CDB7DEB79B838A837D83EB
:102070006C83198211C08981282F30E08A819B816D
:10208000FC01E20FF31F80812C813D81B9010E9488
:10209000041389818F5F89838981282F30E08A81A9
:1020A0009B81FC01E20FF31F8081882321F70F90B1
:1020B0000F900F900F900F90CF91DF910895DF93C5
:1020C000CF93CDB7DEB769970FB6F894DEBF0FBEDA
:1020D000CDBF9F8B8E8B798F688F1E821B828E89DE
:1020E0009F899A83898389819A8199233CF48E8977
:1020F0009F89909581959F4F9F8B8E8B8E81E82F26
:10210000F0E08E899F892AE030E0B9010E94091A27
:10211000282F205DCE010796E80FF91F20838E81BE
:102120008F5F8E838E899F892AE030E0B9010E94FB
:10213000091ACB019F8B8E8B8E899F8918161906E1
:10214000ECF289819A8199236CF48E81282F30E0FA
:10215000CE010796FC01E20FF31F8DE280838E8192
:102160008F5F8E838E818B838B8181508D831E82C6
:102170002CC08E81282F30E0CE010796FC01E20FA3
:10218000F31F80818C838E81482F50E08D81282F12
:1021900030E0CE010796FC01E20FF31F2081CE0153
:1021A0000796FC01E40FF51F20838D81282F30E076
:1021B000CE010796FC01E20FF31F8C8180838E8194
:1021C0008F5F8E838D8181508D839E818D81981745
:1021D00080F21E8211C08E81282F30E0CE0107963A
:1021E000FC01E20FF31F8081288D398DB9010E9417
:1021F00004138E818F5F8E839E818B81981758F395
:1022000069960FB6F894DEBF0FBECDBFCF91DF91B8
:102210000895DF93CF93CDB7DEB72C970FB6F89420
:10222000DEBF0FBECDBF6F83788789879A875C87B3
:102230004B876F81788589859A850E94E304DC014C
:10224000CB019E838D838D819E81AA2797FDA095CA
:10225000BA2FBC01CD010E9485049B01AC016F81A6
:10226000788589859A850E94C101DC01CB0189832B
:102270009A83AB83BC8369817A818B819C8120E0C6
:1022800030E040E050E00E94550488234CF48981FE
:102290009A81AB81BC81B05889839A83AB83BC831C
:1022A0008D819E812B853C85B9010E945F1080E65F
:1022B00090E02B853C85B9010E942E1069817A81BE
:1022C0008B819C8120E030E44CE156E40E941F02A7
:1022D000DC01CB0189839A83AB83BC8369817A81DA
:1022E0008B819C810E94E304DC01CB012B853C8522
:1022F000B9010E945F102C960FB6F894DEBF0FBE96
:10230000CDBFCF91DF910895DF93CF9300D000D060
:1023100000D0CDB7DEB78A837C836B835E834D8329
:102320008A81883058F58A81882F90E00896880F36
:10233000991F880F991F880F991F2D813E81B90120
:102340000E94DC11198211C08981282F30E08B8115
:102350009C81FC01E20FF31F80812D813E81B90138
:102360000E94041389818F5F89838981883060F39B
:102370002D813E8180E8B9010E94DC1126960FB6BE
:10238000F894DEBF0FBECDBFCF91DF910895DF93EC
:10239000CF9300D00F92CDB7DEB789837B836A835A
:1023A0002A813B818981B9010E9404130F900F900B
:1023B0000F90CF91DF910895DF93CF93CDB7DEB724
:1023C0006F970FB6F894DEBF0FBECDBF8D8F7F8F96
:1023D0006E8FEE8DFF8D8081EE8DFF8D9181692F47
:1023E00040E00E943F08EE8DFF8D8281EE8DFF8DD3
:1023F0009381692F40E00E943F08EE8DFF8D86811A
:102400006D8D0E942F0AEE8DFF8D8481EE8DFF8DE4
:102410009581692F41E00E943F0880E090E0A0E8AC
:10242000BFE3898F9A8FAB8FBC8F698D7A8D8B8D2F
:102430009C8D20E030E04AEF54E40E941F02DC0152
:10244000CB018D8B9E8BAF8BB88F6D897E898F89E9
:10245000988D20E030E040E85FE30E945504882337
:102460002CF481E090E09C8B8B8B3FC06D897E8942
:102470008F89988D20E03FEF4FE757E40E94F503E6
:1024800018164CF5698D7A8D8B8D9C8D20E030E08F
:1024900040E251E40E941F02DC01CB01BC01CD01EE
:1024A0000E944900DC01CB019C8B8B8B0FC088EC18
:1024B00090E09A8B898B89899A890197F1F79A8B99
:1024C000898B8B899C8901979C8B8B8B8B899C89B1
:1024D000009769F714C06D897E898F89988D0E9455
:1024E0004900DC01CB019C8B8B8B8B899C89988B61
:1024F0008F878F8598890197F1F7988B8F87EE8D5D
:10250000FF8D8481EE8DFF8D9581692F40E00E94C3
:102510003F0880E090E0A0E8BFE38B879C87AD8711
:10252000BE876B857C858D859E8520E030E04AEFF7
:1025300054E40E941F02DC01CB018F839887A98796
:10254000BA876F81788589859A8520E030E040E8F8
:102550005FE30E94550488232CF481E090E09E8381
:102560008D833FC06F81788589859A8520E03FEF14
:102570004FE757E40E94F50318164CF56B857C85F0
:102580008D859E8520E030E040E251E40E941F02EC
:10259000DC01CB01BC01CD010E944900DC01CB0173
:1025A0009E838D830FC088EC90E09C838B838B810E
:1025B0009C810197F1F79C838B838D819E8101978C
:1025C0009E838D838D819E81009769F714C06F81F2
:1025D000788589859A850E944900DC01CB019E831C
:1025E0008D838D819E819A83898389819A810197C8
:1025F000F1F79A8389836F960FB6F894DEBF0FBE0A
:10260000CDBFCF91DF910895DF93CF93CDB7DEB7E4
:102610006F970FB6F894DEBF0FBECDBF8D8F7F8F43
:102620006E8FEE8DFF8D8081EE8DFF8D9181692FF4
:1026300041E00E943F08EE8DFF8D8281EE8DFF8D7F
:102640009381692F40E00E943F08EE8DFF8D8681C7
:102650006D8D0E942F0AEE8DFF8D8481EE8DFF8D92
:102660009581692F41E00E943F0880E090E0A0E85A
:10267000BFE3898F9A8FAB8FBC8F698D7A8D8B8DDD
:102680009C8D20E030E04AEF54E40E941F02DC0100
:10269000CB018D8B9E8BAF8BB88F6D897E898F8997
:1026A000988D20E030E040E85FE30E9455048823E5
:1026B0002CF481E090E09C8B8B8B3FC06D897E89F0
:1026C0008F89988D20E03FEF4FE757E40E94F50394
:1026D00018164CF5698D7A8D8B8D9C8D20E030E03D
:1026E00040E251E40E941F02DC01CB01BC01CD019C
:1026F0000E944900DC01CB019C8B8B8B0FC088ECC6
:1027000090E09A8B898B89899A890197F1F79A8B46
:10271000898B8B899C8901979C8B8B8B8B899C895E
:10272000009769F714C06D897E898F89988D0E9402
:102730004900DC01CB019C8B8B8B8B899C89988B0E
:102740008F878F8598890197F1F7988B8F87EE8D0A
:10275000FF8D8481EE8DFF8D9581692F40E00E9471
:102760003F0880E090E0A0E8BFE38B879C87AD87BF
:10277000BE876B857C858D859E8520E030E04AEFA5
:1027800054E40E941F02DC01CB018F839887A98744
:10279000BA876F81788589859A8520E030E040E8A6
:1027A0005FE30E94550488232CF481E090E09E832F
:1027B0008D833FC06F81788589859A8520E03FEFC2
:1027C0004FE757E40E94F50318164CF56B857C859E
:1027D0008D859E8520E030E040E251E40E941F029A
:1027E000DC01CB01BC01CD010E944900DC01CB0121
:1027F0009E838D830FC088EC90E09C838B838B81BC
:102800009C810197F1F79C838B838D819E81019739
:102810009E838D838D819E81009769F714C06F819F
:10282000788589859A850E944900DC01CB019E83C9
:102830008D838D819E819A83898389819A81019775
:10284000F1F79A8389836F960FB6F894DEBF0FBEB7
:10285000CDBFCF91DF910895DF93CF93CDB7DEB792
:1028600082E060E041E00E942C0782E061E041E00C
:102870000E942C0782E062E041E00E942C0782E087
:1028800063E041E00E942C0782E064E040E00E94A7
:102890002C0782E065E040E00E942C0782E066E0C1
:1028A00040E00E942C0782E067E040E00E942C0795
:1028B000E5E3F0E08FEF8083CF91DF910895DF9320
:1028C000CF93CDB7DEB763970FB6F894DEBF0FBED8
:1028D000CDBF8FEF888B1F861B8A198AD4C0898948
:1028E000882F90E0FC01E157FE4F908182E0692F34
:1028F00040E00E943F081A8AB0C08A89882F90E081
:10290000FC01ED56FE4F90819E012D5E3F4F82E00F
:10291000692FA9010E9452098B89882309F09AC066
:1029200080E090E0A0EEB0E48B879C87AD87BE8707
:102930006B857C858D859E8520E030E04AEF54E4F0
:102940000E941F02DC01CB018F839887A987BA8779
:102950006F81788589859A8520E030E040E85FE3E3
:102960000E94550488232CF481E090E09E838D839F
:102970003FC06F81788589859A8520E03FEF4FE7DA
:1029800057E40E94F50318164CF56B857C858D8500
:102990009E8520E030E040E251E40E941F02DC010D
:1029A000CB01BC01CD010E944900DC01CB019E831B
:1029B0008D830FC088EC90E09C838B838B819C81FE
:1029C0000197F1F79C838B838D819E8101979E8374
:1029D0008D838D819E81009769F724C06F817885F2
:1029E00089859A850E944900DC01CB019E838D83F5
:1029F0008D819E819A83898389819A810197F1F7DC
:102A00009A8389830FC08A89882F90E0FC01ED5654
:102A1000FE4F90819E012D5E3F4F82E0692FA901FC
:102A20000E9452098B89882371F38989482F50E0CD
:102A30008A89282F30E0CA01880F991F880F991FB3
:102A4000820F931FFC01E158FE4F8081888B81E04B
:102A50008F8707C08A898F5F8A8B8A89843008F4C0
:102A60004CCF8989882F90E0FC01E157FE4F90817F
:102A700082E0692F41E00E943F088F85813039F064
:102A800089898F5F898B8989843008F428CF888968
:102A900063960FB6F894DEBF0FBECDBFCF91DF9126
:102AA00008950F931F93DF93CF93CDB7DEB7809137
:102AB000E4018F5F8093E4018091E401082F1127E6
:102AC00007FD10958091E401992787FD9095019766
:102AD000880F991F880F991FFC01E056FE4F8081D7
:102AE0009181A281B381BC01CD0120E030E040E2C0
:102AF00051E40E941F02DC01CB012091E0013091E2
:102B0000E1014091E2015091E301BC01CD010E943D
:102B1000F201DC01CB019C01AD01C801880F991FB6
:102B2000880F991FFC01E056FE4F208331834283BA
:102B3000538380919F01813039F58091E401682FA2
:102B4000772767FD70958091E401992787FD90951F
:102B5000880F991F880F991FFC01E056FE4F808156
:102B60009181A281B3819C01AD015058CB01880FA6
:102B7000991F880F991FFC01E056FE4F2083318377
:102B80004283538310929F01CF91DF911F910F9148
:102B90000895DF93CF9300D000D0CDB7DEB79A83EE
:102BA0008983809181028F5F809381028091FD01F2
:102BB0008F5F8093FD018091FD01682F772767FD6E
:102BC00070958091EB01992787FD9095880F991F4B
:102BD000880F991FFC01EE57FD4F20813181428102
:102BE0005381CB01880F991F880F991FFC01E15079
:102BF000FE4F208331834283538380918102823050
:102C000009F08EC08091E701282F332727FD3095EA
:102C10003C832B838B819C818130910539F02B8102
:102C20003C812230310509F444C061C08091070223
:102C300090910802A0910902B0910A02BC01CD0155
:102C400020E030E040E050E00E94C503882391F48A
:102C500029813A8181E060E0A9010E94021082E6A8
:102C600090E029813A81B9010E942E1081E1809380
:102C70009E013DC08091030290910402A091050243
:102C8000B09106022091070230910802409109029A
:102C900050910A02BC01CD010E941903DC01CB0155
:102CA0008093030290930402A0930502B09306025E
:102CB0001EC08091030290910402A0910502B09180
:102CC00006022091070230910802409109025091BA
:102CD0000A02BC01CD010E941F02DC01CB018093DE
:102CE000030290930402A0930502B093060281E0D0
:102CF0008093810281E08093FD011092E701809131
:102D00004002813031F41092FD0110928102109244
:102D100040028091EA01813019F485E08093E70157
:102D20000F900F900F900F90CF91DF910895DF9348
:102D3000CF9300D000D0CDB7DEB79A83898381E0EE
:102D4000809340028091E6018F5F8093E60180913D
:102D50003F028F5F80933F0280913F02682F772769
:102D600067FD70958091EB01992787FD9095880FFD
:102D7000991F880F991FFC01EE57FD4F208131816B
:102D800042815381CB01880F991F880F991FFC0145
:102D9000EF5BFD4F20833183428353838091E701B2
:102DA000813021F08091E7018230E1F489819A81BC
:102DB0000E94C91580913F02992787FD9095209127
:102DC0000302309104024091050250910602880FDF
:102DD000991F880F991FFC01EF5BFD4F2083318302
:102DE000428353838091E7018530E1F48091EA01C9
:102DF0008130C1F480913F02992787FD9095209101
:102E00000302309104024091050250910602880F9E
:102E1000991F880F991FFC01EF5BFD4F20833183C1
:102E2000428353838091E601823009F05AC0809139
:102E3000E501282F332727FD30953C832B838B8199
:102E40009C818130910531F02B813C81223031050C
:102E500001F13DC08091450290914602A091470248
:102E6000B09148022091490230914A0240914B02B0
:102E700050914C02BC01CD010E94F201DC01CB015A
:102E80008093450290934602A0934702B093480274
:102E90001EC08091450290914602A0914702B091D8
:102EA00048022091490230914A0240914B025091D0
:102EB0004C02BC01CD010E94C101DC01CB01809319
:102EC000450290934602A0934702B093480281E0E6
:102ED0008093E60181E080933F021092810210927C
:102EE000FD010F900F900F900F90CF91DF910895FB
:102EF000DF93CF9300D0CDB7DEB79A83898381E08B
:102F00008093FC018091E701813021F08091E701FD
:102F10008230F1F489819A810E94C91580919E01C5
:102F20008131B1F029813A8181E060E0A9010E94FC
:102F300002108091030290910402A0910502B091C9
:102F4000060229813A81BC01CD01A9010E94091123
:102F50008091E501813021F08091E5018230F1F42A
:102F600089819A810E94971680919E018131B1F0EA
:102F700029813A8181E060E0A9010E9402108091DC
:102F8000450290914602A0914702B09148022981E2
:102F90003A81BC01CD01A9010E9409110F900F9047
:102FA000CF91DF910895DF93CF9300D000D0CDB7BC
:102FB000DEB79A8389838091EB018F5F8093EB0169
:102FC0008091EB01682F772767FD70958091E40170
:102FD000992787FD9095880F991F880F991FFC01ED
:102FE000E056FE4F2081318142815381CB01880F11
:102FF000991F880F991FFC01EE57FD4F20833183E5
:10300000428353838091E4018F5F8093E401809138
:10301000E401992787FD9095880F991F880F991FC4
:10302000FC01E056FE4F80E090E0A0E0B0E080833D
:103030009183A283B3838091FE01282F30E03C83EB
:103040002B838B819C818D32910599F12B813C8161
:103050002E3231055CF48B819C818A329105C9F056
:103060002B813C812B323105E1F032C08B819C8178
:103070008F32910531F02B813C812D33310509F1DF
:1030800027C089819A810E94C91581E08093E70158
:103090001FC089819A810E94C91582E08093E7014F
:1030A00017C089819A810E94971681E08093E5017B
:1030B0000FC089819A810E94971682E08093E50172
:1030C00007C081E08093EA0189819A810E94781784
:1030D0000F900F900F900F90CF91DF910895DF9395
:1030E000CF93CDB7DEB780E090E0A0E0B0E0809372
:1030F000A0019093A101A093A201B093A30180E04D
:1031000090E0A0E0B0E08093E0019093E101A09313
:10311000E201B093E3011092E4011092EB011092EE
:103120003F021092FD0180E090E0A0E0B0E08093CB
:10313000820290938302A0938402B093850210923E
:1031400081021092E60180E090E0A0E0B0E0809380
:10315000410290934202A0934302B093440280E064
:1031600090E0A0E0B0E08093FF0190930002A09374
:103170000102B09302021092E5011092EA0110924E
:10318000E70110929E01CF91DF910895DF93CF93D5
:1031900000D0CDB7DEB79A8389830E945F148093F5
:1031A000E8018091E8018F3F09F490C08091E80127
:1031B000833461F48091FC01813041F41092FC0170
:1031C00029813A8181E0B9010E94DC118091E801F6
:1031D000833409F45FC08091E8018F3261F08091FF
:1031E000E8018A3241F08091E8018B3221F0809130
:1031F000E8018D3289F580919E01882F90E001973A
:10320000FC01E451FE4F80818F3209F180919E01D3
:10321000882F90E00197FC01E451FE4F80818A32B3
:10322000B1F080919E01882F90E00197FC01E4515C
:10323000FE4F80818B3259F080919E01882F90E063
:103240000197FC01E451FE4F80818D3229F4809179
:103250009E01815080939E0190919E0129813A8127
:1032600080E0692FA9010E9402108091E801298164
:103270003A81B9010E94041330919E01832F90E09E
:103280002091E801FC01E451FE4F2083832F8F5FE2
:1032900080939E018091E8018334C1F480919E0166
:1032A0008823A1F080919E01815080939E0190918E
:1032B0009E0129813A8180E0692FA9010E940210B4
:1032C00029813A818EEFB9010E9404138091E801AF
:1032D0008D3309F064C080919E018093E9012981BA
:1032E0003A8181E060E0A9010E94021010929E01E3
:1032F0004DC080919E01882F90E0FC01E451FE4F6B
:1033000080818093FE018091E401882341F48091C3
:10331000FE018D3221F481E080939F0132C08091C3
:10332000FE018F3281F08091FE018A3261F080913E
:10333000FE018B3241F08091FE018D3221F08091AF
:10334000FE018D3329F489819A810E94D31719C017
:103350008091FE01882F90E0C097AA2797FDA09545
:10336000BA2FBC01CD010E948504DC01CB01809302
:10337000E0019093E101A093E201B093E3010E9488
:10338000511580919E018F5F80939E0190919E01C7
:103390008091E901891708F0ACCF0E946F180F9057
:1033A0000F90CF91DF910895DF93CF93CDB7DEB724
:1033B0002C970FB6F894DEBF0FBECDBFCE0101969D
:1033C00099878887E7E9F1E0FB87EA87F7E0FC87E0
:1033D000EA85FB8500808A859B8501969B878A8785
:1033E000E885F9850082888599850196998788877F
:1033F0009C8591509C87EC85EE2351F70E942C14FC
:10340000CE0101960E94EF0DCE0101960E94C618D2
:10341000FBCF97FB092E07260AD077FD04D00CD0EE
:1034200006D000201AF4709561957F4F0895F6F745
:10343000909581959F4F0895AA1BBB1B51E107C032
:10344000AA1FBB1FA617B70710F0A61BB70B881F34
:10345000991F5A95A9F780959095BC01CD010895C3
:103460002F923F924F925F926F927F928F929F9294
:10347000AF92BF92CF92DF92EF92FF920F931F9382
:10348000CF93DF93CDB7DEB7CA1BDB0B0FB6F89433
:10349000DEBF0FBECDBF09942A88398848885F8473
:1034A0006E847D848C849B84AA84B984C884DF80E4
:1034B000EE80FD800C811B81AA81B981CE0FD11DC8
:1034C0000FB6F894DEBF0FBECDBFED010895F8949E
:0234D000FFCF2C
:1034D2002E004D617468204552524F520000000088
:1034E20000000000000001020203030303040404BD
:1034F200040404040405050505050505050505057F
:10350200050505050506060606060606060606065E
:103512000606060606060606060606060606060649
:10352200060606060607070707070707070707072E
:103532000707070707070707070707070707070719
:103542000707070707070707070707070707070709
:1035520007070707070707070707070707070707F9
:1035620007070707070808080808080808080808DE
:1035720008080808080808080808080808080808C9
:1035820008080808080808080808080808080808B9
:1035920008080808080808080808080808080808A9
:1035A2000808080808080808080808080808080899
:1035B2000808080808080808080808080808080889
:1035C2000808080808080808080808080808080879
:1035D2000808080808080808080808080808080869
:1035E20008080808083F065B4F666D7D077F6F3746
:1035F20038392F3435362A3132332D43303D2B00C2
:0E360200010203040506070100010101020098
:00000001FF
