:100000000C942A000C943F000C943F000C943F0089
:100010000C943F000C943F000C943F000C943F0064
:100020000C943F000C943F000C943F000C943F0054
:100030000C943F000C943F000C943F000C943F0044
:100040000C943F000C943F000C943F000C943F0034
:100050000C943F0011241FBECFE5D8E0DEBFCDBF1A
:1000600010E0A0E6B0E0ECE9F3E202C005900D92EA
:10007000AC37B107D9F70E948C110C94CC110C94B9
:100080000000EF92FF920F931F937B018C0120E001
:1000900030E040E05FE40E94ED0388238CF0C8016B
:1000A000B70120E030E040E05FE40E94B9010E9427
:1000B0004D049B01AC01205030404040504806C0E8
:1000C000C801B7010E944D049B01AC01B901CA01EE
:1000D0001F910F91FF90EF900895A0E0B0E0E3E74B
:1000E000F0E00C949511DC012B01FA019C91923007
:1000F00008F439C1EB018881823008F433C19430AF
:1001000069F4843009F02FC111969C91119789816F
:10011000981709F428C1A0E6B0E025C1843009F49D
:1001200021C18230A9F4923009F01DC19A01AD01BC
:1001300088E0EA010990AE01E90109929E0181502F
:10014000C1F7E201898111969C918923818308C1BD
:10015000923009F407C112962D903C901397EB0151
:100160008A819B811496AD90BD90CD90DC901797BD
:10017000EC80FD800E811F819101281B390BB90194
:1001800037FF04C066277727621B730B6032710547
:100190000CF061C0121613066CF537014801062EEB
:1001A00004C096948794779467940A94D2F721E0D8
:1001B00030E040E050E004C0220F331F441F551FC1
:1001C0006A95D2F721503040404050402E213F21C7
:1001D00040235123211531054105510521F021E02E
:1001E00030E040E050E079018A01E628F72808294C
:1001F00019293CC0232BD1F1260E371E35014601AB
:10020000062E04C096948794779467940A94D2F744
:1002100021E030E040E050E004C0220F331F441FD3
:10022000551F6A95D2F721503040404050402A2156
:100230003B214C215D21211531054105510521F05E
:1002400021E030E040E050E059016A01A628B728DB
:10025000C828D9280BC0821593052CF01C01AA24AC
:10026000BB24650103C0EE24FF24870111969C91F5
:10027000D20111968C91981709F445C0992339F051
:10028000A80197012A193B094C095D0906C0A6017E
:1002900095012E193F09400B510B57FD08C01182E3
:1002A0003382228224833583468357831DC081E0B5
:1002B00081833382228288279927DC01821B930B5A
:1002C000A40BB50B84839583A683B7830DC0220F3F
:1002D000331F441F551F24833583468357838281F0
:1002E000938101979383828324813581468157814D
:1002F000DA01C9010197A109B1098F5F9F4FAF4F83
:10030000BF4328F30BC0918333822282EA0CFB1C8B
:100310000C1D1D1DE482F5820683178383E0808314
:10032000248135814681578157FF1AC0C901AA2708
:1003300097FDA095BA2F81709070A070B0705695FF
:10034000479537952795822B932BA42BB52B848328
:100350009583A683B7838281938101969383828359
:10036000DF0101C0D201CD01CDB7DEB7E2E10C94CF
:10037000B111A0E2B0E0EFEBF1E00C94A1116983C0
:100380007A838B839C832D833E834F835887E9E058
:10039000EE2EF12CEC0EFD1ECE010196B7010E944F
:1003A00076058E010F5E1F4FCE010596B8010E94A3
:1003B00076058A8991E089278A8BC701B801AE0149
:1003C000475E5F4F0E946D000E94A104A096E6E088
:1003D0000C94BD11A0E2B0E0E0EFF1E00C94A111AB
:1003E00069837A838B839C832D833E834F835887D5
:1003F000F9E0EF2EF12CEC0EFD1ECE010196B701B7
:100400000E9476058E010F5E1F4FCE010596B80142
:100410000E947605C701B801AE01475E5F4F0E949A
:100420006D000E94A104A096E6E00C94BD11A0E22C
:10043000B0E0EDE1F2E00C94951169837A838B834F
:100440009C832D833E834F835887CE010196BE0146
:10045000675F7F4F0E947605CE010596BE016F5EF5
:100460007F4F0E9476059985923088F08989823085
:10047000C8F0943019F4823051F404C0843029F467
:10048000923081F480E690E0C6C0923049F420E0DA
:100490009A858A89981321E02A87CE010996BBC0E4
:1004A000823049F420E09A858A89981321E02A8BCA
:1004B000CE014196B0C02D843E844F8458886D880B
:1004C0007E888F88988CEE24FF248701AA24BB2481
:1004D000650140E050E060E070E0E0E0F0E0C10184
:1004E00081709070892BE9F0E60CF71C081D191D2E
:1004F0009A01AB012A0D3B1D4C1D5D1D80E090E073
:10050000A0E0B0E0E614F7040805190520F481E046
:1005100090E0A0E0B0E0BA01A901480F591F6A1F9E
:100520007B1FAA0CBB1CCC1CDD1C97FE08C081E005
:1005300090E0A0E0B0E0A82AB92ACA2ADB2A3196C6
:10054000E032F10549F0660C771C881C991C569422
:10055000479437942794C3CFFA85EA892B893C893D
:100560008B859C85280F391F2E5F3F4F17C0CA010E
:1005700081709070892B61F016950795F794E79438
:1005800080E090E0A0E0B0E8E82AF92A0A2B1B2BD3
:1005900076956795579547952F5F3F4F77FDE7CF46
:1005A0000CC0440F551F661F771F17FD4160EE0CEE
:1005B000FF1C001F111F21503040403090E05907B0
:1005C00090E0690790E4790760F32B8F3C8FDB01A3
:1005D000CA018F779070A070B07080349105A1052A
:1005E000B10561F447FD0AC0E114F10401051105EC
:1005F00029F0405C5F4F6F4F7F4F40781A8EFE1797
:1006000011F081E08A8F4D8F5E8F6F8F78A383E02A
:10061000898FCE0149960E94A104A096E2E10C9434
:10062000B111A8E1B0E0E7E1F3E00C949D1169831A
:100630007A838B839C832D833E834F835887B9E0D5
:10064000EB2EF12CEC0EFD1ECE010196B7010E949F
:1006500076058E010F5E1F4FCE010596B8010E94F0
:1006600076052985223008F47EC03989323010F4AD
:10067000B8017CC08A859A8989278A87243011F03D
:10068000223031F4231709F06EC060E670E06EC0CE
:10069000343039F41D861E861F86188A1C861B86F8
:1006A00004C0323021F484E08987B7015FC02B8514
:1006B0003C858B899C89281B390B3C872B87ED84D3
:1006C000FE840F851889AD88BE88CF88D88CEA143F
:1006D000FB040C051D0540F4EE0CFF1C001F111F50
:1006E000215030403C872B8720E030E040E050E054
:1006F00080E090E0A0E0B0E460E070E0EA14FB0489
:100700000C051D0540F0282B392B4A2B5B2BEA18D2
:10071000FB080C091D09B695A79597958795EE0CD2
:10072000FF1C001F111F6F5F7F4F6F31710531F785
:10073000DA01C9018F779070A070B0708034910594
:10074000A105B10561F427FD0AC0E114F10401051A
:10075000110529F0205C3F4F4F4F5F4F20782D87C8
:100760003E874F87588BBE01675F7F4FCB010E944A
:10077000A1046896EAE00C94B911A8E1B0E0E3ECBA
:10078000F3E00C94A11169837A838B839C832D837E
:100790003E834F83588789E0E82EF12CEC0EFD1E36
:1007A000CE010196B7010E9476058E010F5E1F4FA4
:1007B000CE010596B8010E9476058985823040F009
:1007C0008989823028F0C701B8010E94EE0501C076
:1007D0008FEF6896E6E00C94BD11A8E1B0E0E3EF7E
:1007E000F3E00C94A11169837A838B839C832D831E
:1007F0003E834F83588789E0E82EF12CEC0EFD1ED6
:10080000CE010196B7010E9476058E010F5E1F4F43
:10081000CE010596B8010E9476058985823040F0A8
:100820008989823028F0C701B8010E94EE0501C015
:100830008FEF6896E6E00C94BD11A8E1B0E0E3E22A
:10084000F4E00C94A11169837A838B839C832D83BC
:100850003E834F83588789E0E82EF12CEC0EFD1E75
:10086000CE010196B7010E9476058E010F5E1F4FE3
:10087000CE010596B8010E9476058985823040F048
:100880008989823028F0C701B8010E94EE0501C0B5
:1008900081E06896E6E00C94BD11ACE0B0E0E3E5E1
:1008A000F4E00C94A51169837A838B839C83CE0139
:1008B0000196BE016B5F7F4F0E9476058D8182306D
:1008C00061F1823050F1843021F48E81882351F11E
:1008D0002EC02F81388537FD20C06E812F31310524
:1008E0001CF06623F9F023C08EE190E0821B930B8D
:1008F00029853A854B855C8504C056954795379583
:1009000027958A95D2F76623B1F05095409530959A
:1009100021953F4F4F4F5F4F0EC020E030E040E049
:1009200050E009C02FEF3FEF4FEF5FE704C020E03A
:1009300030E040E050E8B901CA012C96E2E00C94A6
:10094000C111DF92EF92FF920F931F93FC01E4809D
:10095000F58006811781D1808081823048F480E063
:1009600090E0A0E1B0E0E82AF92A0A2B1B2BA5C0F1
:10097000843009F49FC0823021F4EE24FF248701E3
:1009800005C0E114F1040105110519F4E0E0F0E0FF
:1009900096C0628173819FEF623879070CF05BC06B
:1009A00022E83FEF261B370B2A3131052CF020E0DF
:1009B00030E040E050E02AC0B801A701022E04C098
:1009C00076956795579547950A94D2F781E090E020
:1009D000A0E0B0E004C0880F991FAA1FBB1F2A9592
:1009E000D2F70197A109B1098E219F21A023B1233C
:1009F0000097A105B10521F081E090E0A0E0B0E012
:100A00009A01AB01282B392B4A2B5B2BDA01C90148
:100A10008F779070A070B07080349105A105B105FA
:100A200039F427FF09C0205C3F4F4F4F5F4F04C090
:100A3000215C3F4F4F4F5F4FE0E0F0E02030A0E0FF
:100A40003A07A0E04A07A0E45A0710F0E1E0F0E01E
:100A500079018A0127C06038710564F5FB01E1580E
:100A6000FF4FD801C7018F779070A070B0708034AD
:100A70009105A105B10539F4E7FE0DC080E490E0D1
:100A8000A0E0B0E004C08FE390E0A0E0B0E0E80EAA
:100A9000F91E0A1F1B1F17FF05C016950795F7942F
:100AA000E794319687E016950795F794E7948A9531
:100AB000D1F705C0EE24FF248701EFEFF0E06E2FA1
:100AC000679566276795902F9F77D794DD24D794F5
:100AD0008E2F8695492F462B582F5D29B701CA01C5
:100AE0001F910F91FF90EF90DF900895FC01DB01C3
:100AF000408151812281622F6F7770E0221F22276F
:100B0000221F9381892F880F822B282F30E0991F75
:100B10009927991F11969C93119721153105A9F5D5
:100B2000411551056105710511F482E037C082E875
:100B30009FEF13969C938E9312979A01AB0167E0F7
:100B4000220F331F441F551F6A95D1F783E08C9302
:100B50000DC0220F331F441F551F12968D919C917B
:100B60001397019713969C938E931297203080E0F1
:100B7000380780E0480780E4580758F314962D930F
:100B80003D934D935C93179708952F3F310579F46A
:100B9000411551056105710519F484E08C930895A0
:100BA00064FF03C081E08C9312C01C9210C02F57C9
:100BB000304013963C932E93129783E08C9387E0FA
:100BC000440F551F661F771F8A95D1F770641496DE
:100BD0004D935D936D937C93179708951F93DC015C
:100BE000FB019C91923008F447C08081823008F468
:100BF00043C0943051F411961C91843099F5818151
:100C0000682F70E0611B71093FC0843021F0923081
:100C100031F48230B9F18181882389F12DC0119698
:100C20001C9111978230F1F081811817D9F4129636
:100C30002D913C911397828193818217930794F0B1
:100C400028173907BCF014968D919D910D90BC9199
:100C5000A02D2481358146815781281739074A07FD
:100C60005B0718F4112341F00AC082179307A40709
:100C7000B50740F4112319F061E070E005C06FEF93
:100C80007FEF02C060E070E0CB011F910895DF9319
:100C9000CF93CDB7DEB728970FB6F894DEBF0FBE5F
:100CA000CDBF89836A834B838A81883008F0F6C080
:100CB0008B81882309F077C08981282F30E038871D
:100CC0002F838F8198858130910559F12F81388547
:100CD000223031052CF48F819885009769F060C02F
:100CE0002F8138852230310589F18F8198858330B5
:100CF000910509F440C054C0AAE3B0E0EAE3F0E093
:100D00008081482F8A81282F30E081E090E0022EF8
:100D100002C0880F991F0A94E2F7809584238C9370
:100D2000BBC0A7E3B0E0E7E3F0E08081482F8A8111
:100D3000282F30E081E090E0022E02C0880F991F3A
:100D40000A94E2F7809584238C93A6C0A4E3B0E0D4
:100D5000E4E3F0E08081482F8A81282F30E081E0B1
:100D600090E0022E02C0880F991F0A94E2F7809546
:100D700084238C9391C0A1E3B0E0E1E3F0E08081B3
:100D8000482F8A81282F30E081E090E0022E02C0B7
:100D9000880F991F0A94E2F7809584238C937CC076
:100DA00091E09E837DC08B81813009F072C0898182
:100DB000282F30E03D832C838C819D8181309105EB
:100DC00049F12C813D81223031052CF48C819D81AB
:100DD000009761F05BC02C813D812230310571F1BB
:100DE0008C819D8183309105E9F150C0AAE3B0E088
:100DF000EAE3F0E08081482F8A81282F30E081E00B
:100E000090E0022E02C0880F991F0A94E2F7842B0B
:100E10008C9342C0A7E3B0E0E7E3F0E08081482F85
:100E20008A81282F30E081E090E0022E02C0880FF6
:100E3000991F0A94E2F7842B8C932EC0A4E3B0E0B0
:100E4000E4E3F0E08081482F8A81282F30E081E0C0
:100E500090E0022E02C0880F991F0A94E2F7842BBB
:100E60008C931AC0A1E3B0E0E1E3F0E08081482F69
:100E70008A81282F30E081E090E0022E02C0880FA6
:100E8000991F0A94E2F7842B8C9306C091E09E830D
:100E900007C023E02E8304C01E8202C032E03E83DE
:100EA0008E8128960FB6F894DEBF0FBECDBFCF91CE
:100EB000DF910895DF93CF93CDB7DEB728970FB6B4
:100EC000F894DEBF0FBECDBF89836A834B838A81CE
:100ED000883008F0F6C08B81882309F077C08981BB
:100EE000282F30E038872F838F81988581309105B6
:100EF00059F12F813885223031052CF48F81988566
:100F0000009769F060C02F8138852230310589F162
:100F10008F8198858330910509F440C054C0ABE3BC
:100F2000B0E0EBE3F0E08081482F8A81282F30E0A9
:100F300081E090E0022E02C0880F991F0A94E2F728
:100F4000809584238C93BBC0A8E3B0E0E8E3F0E095
:100F50008081482F8A81282F30E081E090E0022EA6
:100F600002C0880F991F0A94E2F7809584238C931E
:100F7000A6C0A5E3B0E0E5E3F0E08081482F8A81D8
:100F8000282F30E081E090E0022E02C0880F991FE8
:100F90000A94E2F7809584238C9391C0A2E3B0E099
:100FA000E2E3F0E08081482F8A81282F30E081E061
:100FB00090E0022E02C0880F991F0A94E2F78095F4
:100FC00084238C937CC091E09E837DC08B81813093
:100FD00009F072C08981282F30E03D832C838C81F9
:100FE0009D818130910549F12C813D81223031056F
:100FF0002CF48C819D81009761F05BC02C813D8138
:101000002230310571F18C819D8183309105E9F1A8
:1010100050C0ABE3B0E0EBE3F0E08081482F8A8181
:10102000282F30E081E090E0022E02C0880F991F47
:101030000A94E2F7842B8C9342C0A8E3B0E0E8E383
:10104000F0E08081482F8A81282F30E081E090E015
:10105000022E02C0880F991F0A94E2F7842B8C930A
:101060002EC0A5E3B0E0E5E3F0E08081482F8A815F
:10107000282F30E081E090E0022E02C0880F991FF7
:101080000A94E2F7842B8C931AC0A2E3B0E0E2E367
:10109000F0E08081482F8A81282F30E081E090E0C5
:1010A000022E02C0880F991F0A94E2F7842B8C93BA
:1010B00006C091E09E8307C023E02E8304C01E82F9
:1010C00002C032E03E838E8128960FB6F894DEBFD0
:1010D0000FBECDBFCF91DF910895DF93CF93CDB7F2
:1010E000DEB727970FB6F894DEBF0FBECDBF89835A
:1010F0006A835C834B838A81883008F076C089815B
:10110000282F30E03F832E834E815F81413051058F
:1011100059F18E819F818230910534F42E813F8177
:101120002115310569F05CC04E815F814230510567
:1011300079F18E819F818330910509F43DC050C0C3
:10114000E9E3F0E08081282F30E08A81882F90E069
:10115000A90102C0559547958A95E2F7CA018170A9
:10116000EB81FC8180833FC0E6E3F0E08081282FA3
:1011700030E08A81882F90E0A90102C055954795FB
:101180008A95E2F7CA018170EB81FC8180832BC0D4
:10119000E3E3F0E08081282F30E08A81882F90E01F
:1011A000A90102C0559547958A95E2F7CA01817059
:1011B000EB81FC81808317C0E0E3F0E08081282F81
:1011C00030E08A81882F90E0A90102C055954795AB
:1011D0008A95E2F7CA018170EB81FC81808303C0AC
:1011E00051E05D8304C01D8202C082E08D838D8149
:1011F00027960FB6F894DEBF0FBECDBFCF91DF911B
:101200000895DF93CF9300D000D00F92CDB7DEB713
:1012100089836A838981282F30E03D832C838C81E8
:101220009D8181309105D1F02C813D8122303105A5
:101230002CF48C819D81009761F01FC02C813D8131
:101240002230310581F08C819D818330910581F0C0
:1012500014C0EAE3F0E08A81808312C0E7E3F0E0A3
:101260008A8180830DC0E4E3F0E08A81808308C036
:10127000E1E3F0E08A81808303C091E09B8301C0B9
:101280001B828B810F900F900F900F900F90CF913A
:10129000DF910895DF93CF9300D000D00F92CDB7A8
:1012A000DEB789836A838981282F30E03D832C83D0
:1012B0008C819D8181309105D1F02C813D8122303E
:1012C00031052CF48C819D81009761F01FC02C8129
:1012D0003D812230310581F08C819D8183309105E3
:1012E00081F014C0EBE3F0E08A81808312C0E8E370
:1012F000F0E08A8180830DC0E5E3F0E08A8180839D
:1013000008C0E2E3F0E08A81808303C091E09B8320
:1013100001C01B828B810F900F900F900F900F9048
:10132000CF91DF910895DF93CF9300D000D000D00C
:10133000CDB7DEB789837B836A838A819B810097DF
:1013400009F440C08981282F30E03E832D838D81B0
:101350009E8181309105E1F02D813E812230310561
:101360002CF48D819E81009761F027C02D813E81F4
:1013700022303105A1F08D819E8183309105B1F03D
:101380001CC0E9E3F0E08081EA81FB81808318C022
:10139000E6E3F0E08081EA81FB81808311C0E3E332
:1013A000F0E08081EA81FB8180830AC0E0E3F0E025
:1013B0008081EA81FB81808303C091E09C8304C02B
:1013C0001C8202C025E02C838C8126960FB6F894EF
:1013D000DEBF0FBECDBFCF91DF910895DF93CF93D6
:1013E00000D000D00F92CDB7DEB79A838983E98110
:1013F000FA818081E981FA819181692F40E00E9420
:101400004706E981FA818281882309F07DC0E9815C
:10141000FA818081282F30E03D832C838C819D814F
:101420008130910561F12C813D81223031052CF410
:101430008C819D81009769F064C02C813D812230B0
:10144000310599F18C819D818330910509F443C068
:1014500058C0ABE3B0E0EBE3F0E08081482FE981D6
:10146000FA818181282F30E081E090E0022E02C0D5
:10147000880F991F0A94E2F7842B8C9345C0A8E348
:10148000B0E0E8E3F0E08081482FE981FA818181D2
:10149000282F30E081E090E0022E02C0880F991FD3
:1014A0000A94E2F7842B8C932FC0A5E3B0E0E5E328
:1014B000F0E08081482FE981FA818181282F30E096
:1014C00081E090E0022E02C0880F991F0A94E2F793
:1014D000842B8C9319C0A2E3B0E0E2E3F0E08081BA
:1014E000482FE981FA818181282F30E081E090E066
:1014F000022E02C0880F991F0A94E2F7842B8C9366
:1015000003C091E09B8301C01B828B810F900F90E1
:101510000F900F900F90CF91DF910895DF93CF93AD
:1015200000D000D0CDB7DEB79A8389837C836B83EC
:10153000E981FA818081E981FA8191812B813C8165
:10154000692FA9010E946D0880E00F900F900F9005
:101550000F90CF91DF910895DF93CF9300D0CDB757
:10156000DEB79A838983E981FA8181816FEF0E94D6
:10157000010980E00F900F90CF91DF910895DF93E4
:10158000CF93CDB7DEB761970FB6F894DEBF0FBE2D
:10159000CDBF8F87798B688BE889F98921818F8509
:1015A000882F90E0FC01E859FF4F9081822F692F2E
:1015B0000E944A0980E090E0AAE7B4E48B879C8708
:1015C000AD87BE876B857C858D859E8520E030E06C
:1015D0004AEF54E40E941702DC01CB018F83988705
:1015E000A987BA876F81788589859A8520E030E060
:1015F00040E85FE30E941D0488232CF481E090E022
:101600009E838D833FC06F81788589859A8520E090
:101610003FEF4FE757E40E94BD0318164CF56B856A
:101620007C858D859E8520E030E040E251E40E947B
:101630001702DC01CB01BC01CD010E944100DC019D
:10164000CB019E838D830FC088EC90E09C838B83BD
:101650008B819C810197F1F79C838B838D819E8187
:1016600001979E838D838D819E81009769F714C0B9
:101670006F81788589859A850E944100DC01CB01C4
:101680009E838D838D819E819A83898389819A81AE
:101690000197F1F79A83898380E061960FB6F894F9
:1016A000DEBF0FBECDBFCF91DF910895DF93CF9303
:1016B000CDB7DEB7A3970FB6F894DEBF0FBECDBF90
:1016C00098A38F8F69A34AA399A18AA1981708F0BC
:1016D00094C089A18E8F84C0EF8DF8A121818E8D59
:1016E000992787FD9095FC01E859FF4F9081822F43
:1016F000692F0E944A0980E090E0AAE7B4E4898F4C
:101700009A8FAB8FBC8F698D7A8D8B8D9C8D20E0ED
:1017100030E04AEF54E40E941702DC01CB018D8BCC
:101720009E8BAF8BB88F6D897E898F89988D20E0D5
:1017300030E040E85FE30E941D0488232CF481E040
:1017400090E09C8B8B8B3FC06D897E898F89988DB3
:1017500020E03FEF4FE757E40E94BD0318164CF519
:10176000698D7A8D8B8D9C8D20E030E040E251E4D4
:101770000E941702DC01CB01BC01CD010E94410097
:10178000DC01CB019C8B8B8B0FC088EC90E09A8B9B
:10179000898B89899A890197F1F79A8B898B8B8933
:1017A0009C8901979C8B8B8B8B899C89009769F70F
:1017B00014C06D897E898F89988D0E944100DC015B
:1017C000CB019C8B8B8B8B899C89988B8F878F858A
:1017D00098890197F1F7988B8F878E8D8F5F8E8F09
:1017E0008E8D282F332727FD30958AA1882F90E0F2
:1017F000821793070CF070CF9CC099A18AA189171A
:1018000008F094C089A18D8F84C0EF8DF8A121814B
:101810008D8D992787FD9095FC01E859FF4F9081A8
:10182000822F692F0E944A0980E090E0AAE7B4E481
:101830008B879C87AD87BE876B857C858D859E85D4
:1018400020E030E04AEF54E40E941702DC01CB01B3
:101850008F839887A987BA876F81788589859A85CC
:1018600020E030E040E85FE30E941D0488232CF470
:1018700081E090E09E838D833FC06F81788589856C
:101880009A8520E03FEF4FE757E40E94BD0318160A
:101890004CF56B857C858D859E8520E030E040E2AF
:1018A00051E40E941702DC01CB01BC01CD010E9472
:1018B0004100DC01CB019E838D830FC088EC90E05A
:1018C0009C838B838B819C810197F1F79C838B8315
:1018D0008D819E8101979E838D838D819E8100974E
:1018E00069F714C06F81788589859A850E944100C7
:1018F000DC01CB019E838D838D819E819A838983B8
:1019000089819A810197F1F79A8389838D8D81501E
:101910008D8F8D8D282F332727FD30958AA1882F15
:1019200090E0281739070CF070CF03C081E08BA33B
:1019300001C01BA28BA1A3960FB6F894DEBF0FBE09
:10194000CDBFCF91DF910895DF93CF93CDB7DEB7B1
:1019500062970FB6F894DEBF0FBECDBF998B888B10
:101960001F8684C0E889F98921818F85992787FDA1
:101970009095FC01E859FF4F9081822F692F0E94BA
:101980004A0980E090E0AAE7B4E48B879C87AD87A2
:10199000BE876B857C858D859E8520E030E04AEF93
:1019A00054E40E941702DC01CB018F839887A9873A
:1019B000BA876F81788589859A8520E030E040E894
:1019C0005FE30E941D0488232CF481E090E09E8355
:1019D0008D833FC06F81788589859A8520E03FEFB0
:1019E0004FE757E40E94BD0318164CF56B857C85C4
:1019F0008D859E8520E030E040E251E40E94170290
:101A0000DC01CB01BC01CD010E944100DC01CB0116
:101A10009E838D830FC088EC90E09C838B838B81A9
:101A20009C810197F1F79C838B838D819E81019727
:101A30009E838D838D819E81009769F714C06F818D
:101A4000788589859A850E944100DC01CB019E83BF
:101A50008D838D819E819A83898389819A81019763
:101A6000F1F79A8389838F858F5F8F878F858A307F
:101A70000CF478CF62960FB6F894DEBF0FBECDBFE0
:101A8000CF91DF910895DF93CF9300D00F92CDB720
:101A9000DEB79A838983E981FA818081E981FA81BD
:101AA0009181692F41E00E944706882319F081E067
:101AB0008B8301C01B828B810F900F900F90CF9171
:101AC000DF910895DF93CF9300D00F92CDB7DEB7AB
:101AD0009A838983E981FA818281882359F4E98193
:101AE000FA818081E981FA819181692F41E00E9428
:101AF0005A0713C0E981FA818281813059F4E98162
:101B0000FA818081E981FA819181692F40E00E9408
:101B10005A0703C082E08B8301C01B828B810F9028
:101B20000F900F90CF91DF910895DF93CF9300D066
:101B30000F92CDB7DEB79A838983E981FA818281DA
:101B4000882359F4E981FA818081E981FA819181C0
:101B5000692F40E00E945A0713C0E981FA8182810F
:101B6000813059F4E981FA818081E981FA8191819A
:101B7000692F41E00E945A0703C082E08B8301C0B5
:101B80001B828B810F900F900F90CF91DF91089562
:101B9000DF93CF93CDB7DEB7EC970FB6F894DEBFE7
:101BA0000FBECDBFCE0182969FA78EA7E8E7F0E0DB
:101BB000F9ABE8ABF3E0FAABE8A9F9A9008088A992
:101BC00099A9019699AB88ABEEA5FFA500828EA5D9
:101BD0009FA501969FA78EA79AA991509AABEAA9B3
:101BE000EE2351F7CE0185969CAB8BABE5E7F0E099
:101BF000FEABEDABF3E0FFABEDA9FEA900808DA934
:101C00009EA901969EAB8DABEBA9FCA900828BA986
:101C10009CA901969CAB8BAB9FA991509FABEFA960
:101C2000EE2351F7CE01889699AF88AFE2E7F0E056
:101C3000FBAFEAAFF3E0FCAFEAADFBAD00808AADED
:101C40009BAD01969BAF8AAFE8ADF9AD008288AD40
:101C500099AD019699AF88AF9CAD91509CAFECAD1A
:101C6000EE2351F781E08BA781E08CA781E08DA75F
:101C7000CE0182960E94EE09CE0185960E94EE0961
:101C8000CE0188960E94EE09E8A1F9A1118288A1EF
:101C900099A10E94AC0A1F8ECE0182969E01255DFD
:101CA0003F4FB9010E948E0ACE0185969E01245DA8
:101CB0003F4FB9010E948E0ACE0188969E01235D96
:101CC0003F4FB9010E948E0A8BA5882309F09CC062
:101CD0001E8E95C028A139A18E8DB9010E94BF0A20
:101CE00080E090E0AAE7B4E4898F9A8FAB8FBC8F35
:101CF000698D7A8D8B8D9C8D20E030E04AEF54E425
:101D00000E941702DC01CB018D8B9E8BAF8BB88FAD
:101D10006D897E898F89988D20E030E040E85FE30F
:101D20000E941D0488232CF481E090E09C8B8B8B17
:101D30003FC06D897E898F89988D20E03FEF4FE706
:101D400057E40E94BD0318164CF5698D7A8D8B8D72
:101D50009C8D20E030E040E251E40E941702DC015B
:101D6000CB01BC01CD010E944100DC01CB019C8B69
:101D70008B8B0FC088EC90E09A8B898B89899A892C
:101D80000197F1F79A8B898B8B899C8901979C8BA2
:101D90008B8B8B899C89009769F714C06D897E892C
:101DA0008F89988D0E944100DC01CB019C8B8B8B2D
:101DB0008B899C89988B8F878F8598890197F1F7FC
:101DC000988B8F878E8D8F8FCE0185969E01245D97
:101DD0003F4FB9010E948E0ACE0188969E01235D75
:101DE0003F4FB9010E948E0A8CA5882309F454CF75
:101DF0008DA5882309F450CF8E8D8F5F8E8F8E8DA9
:101E00008A3008F467CF48CF8CA5882309F09DC09D
:101E100089E08D8F95C08D8D28A139A1B9010E94CF
:101E2000BF0A80E090E0AAE7B4E48B879C87AD8787
:101E3000BE876B857C858D859E8520E030E04AEFEE
:101E400054E40E941702DC01CB018F839887A98795
:101E5000BA876F81788589859A8520E030E040E8EF
:101E60005FE30E941D0488232CF481E090E09E83B0
:101E70008D833FC06F81788589859A8520E03FEF0B
:101E80004FE757E40E94BD0318164CF56B857C851F
:101E90008D859E8520E030E040E251E40E941702EB
:101EA000DC01CB01BC01CD010E944100DC01CB0172
:101EB0009E838D830FC088EC90E09C838B838B8105
:101EC0009C810197F1F79C838B838D819E81019783
:101ED0009E838D838D819E81009769F714C06F81E9
:101EE000788589859A850E944100DC01CB019E831B
:101EF0008D838D819E819A83898389819A810197BF
:101F0000F1F79A8389838D8D8F8FCE0182969E0102
:101F1000255D3F4FB9010E948E0ACE0188969E0131
:101F2000235D3F4FB9010E948E0A8BA5882309F4D7
:101F3000B3CE8DA5882309F4AFCE8D8D81508D8FC2
:101F40008D8D88230CF067CFA7CE8DA5882309F04F
:101F5000A3CE28A139A18F8DB9010E94BF0A9CCEC2
:101F6000DF93CF93CDB7DEB7E4970FB6F894DEBF1B
:101F70000FBECDBFEBA9FCA911828BA99CA90E9421
:101F8000AC0A82E060E041E00E94470682E061E046
:101F900041E00E9447061AAA98C119AA8FC10E945F
:101FA0007B112BA93CA98AA9B9010E94BF0A80E034
:101FB00090E0AAEFB3E48DA79EA7AFA7B8AB6DA53D
:101FC0007EA58FA598A92BEA3AEA4AE250E40E943E
:101FD0001702DC01CB0189A79AA7ABA7BCA769A50B
:101FE0007AA58BA59CA520E030E040E85FE30E9445
:101FF0001D0488231CF481E088A791C069A57AA5F7
:102000008BA59CA520E030E04FE753E40E94BD0380
:1020100018160CF07BC06DA57EA58FA598A920E0B1
:1020200030E04AE754E40E941103DC01CB018CA3A9
:102030009DA3AEA3BFA36CA17DA18EA19FA120E013
:1020400030E04AEF54E40E941702DC01CB0188A380
:1020500099A3AAA3BBA368A179A18AA19BA120E00F
:1020600030E040E85FE30E941D0488232CF481E007
:1020700090E09F8F8E8F3FC068A179A18AA19BA11C
:1020800020E03FEF4FE757E40E94BD0318164CF5E0
:102090006CA17DA18EA19FA120E030E040E251E43F
:1020A0000E941702DC01CB01BC01CD010E9441005E
:1020B000DC01CB019F8F8E8F0FC088EC90E09D8F4D
:1020C0008C8F8C8D9D8D0197F1F79D8F8C8F8E8DD0
:1020D0009F8D01979F8F8E8F8E8D9F8D009769F7B3
:1020E00024C068A179A18AA19BA10E944100DC01C2
:1020F000CB019F8F8E8F8E8D9F8D9B8F8A8F8A8D28
:102100009B8D0197F1F79B8F8A8F0FC069A57AA5E8
:102110008BA59CA50E944100DC01CB0188A788A566
:10212000898F898D8A95F1F7898F0E946A112BA971
:102130003CA989A9B9010E94BF0A80E090E0AAEFFA
:10214000B3E48D8B9E8BAF8BB88F6D897E898F8921
:10215000988D2BEA3AEA4AE250E40E941702DC0129
:10216000CB01898B9A8BAB8BBC8B69897A898B89E4
:102170009C8920E030E040E85FE30E941D04882352
:102180001CF481E0888B91C069897A898B899C894C
:1021900020E030E04FE753E40E94BD0318160CF036
:1021A0007BC06D897E898F89988D20E030E04AE779
:1021B00054E40E941103DC01CB018C879D87AE871C
:1021C000BF876C857D858E859F8520E030E04AEF56
:1021D00054E40E941702DC01CB0188879987AA8703
:1021E000BB87688579858A859B8520E030E040E85B
:1021F0005FE30E941D0488232CF481E090E09F831C
:102200008E833FC0688579858A859B8520E03FEF76
:102210004FE757E40E94BD0318164CF56C857D8589
:102220008E859F8520E030E040E251E40E94170255
:10223000DC01CB01BC01CD010E944100DC01CB01DE
:102240009F838E830FC088EC90E09D838C838C816C
:102250009D810197F1F79D838C838E819F810197EA
:102260009F838E838E819F81009769F724C0688544
:1022700079858A859B850E944100DC01CB019F8383
:102280008E838E819F819B838A838A819B81019724
:10229000F1F79B838A830FC069897A898B899C892E
:1022A0000E944100DC01CB01888B88898983898168
:1022B0008A95F1F7898389A98F5F89AB89A98A30CB
:1022C00008F46DCE8AA98F5F8AAB8AA98A3008F498
:1022D00064CE61CEDF93CF93CDB7DEB782E060E00E
:1022E00040E00E945A0782E061E041E00E945A0704
:1022F000CF91DF910895DF93CF93CDB7DEB782E022
:1023000061E040E00E945A0782E060E041E00E9404
:102310005A07CF91DF910895DF93CF93CDB7DEB702
:102320000E94B00FCF91DF9108952F923F924F926C
:102330005F926F927F928F929F92AF92BF92CF9255
:10234000DF92EF92FF920F931F93CF93DF93CDB75E
:10235000DEB7CA1BDB0B0FB6F894DEBF0FBECDBFD6
:1023600009942A88398848885F846E847D848C84A7
:102370009B84AA84B984C884DF80EE80FD800C81B0
:102380001B81AA81B981CE0FD11D0FB6F894DEBF93
:0C2390000FBECDBFED010895F894FFCF03
:10239C0000000000000000003F065B4F666D7D07EB
:0C23AC007F6F030200030100030000002B
:00000001FF
